{
  "contractName": "GroupBuyContract",
  "abi": [
    {
      "constant": true,
      "inputs": [],
      "name": "cfoAddress",
      "outputs": [
        {
          "name": "",
          "type": "address"
        }
      ],
      "payable": false,
      "stateMutability": "view",
      "type": "function"
    },
    {
      "constant": true,
      "inputs": [],
      "name": "ceoAddress",
      "outputs": [
        {
          "name": "",
          "type": "address"
        }
      ],
      "payable": false,
      "stateMutability": "view",
      "type": "function"
    },
    {
      "constant": true,
      "inputs": [
        {
          "name": "_tokenId",
          "type": "uint256"
        }
      ],
      "name": "getTokenGroupTotalBalance",
      "outputs": [
        {
          "name": "balance",
          "type": "uint256"
        }
      ],
      "payable": false,
      "stateMutability": "view",
      "type": "function"
    },
    {
      "constant": false,
      "inputs": [
        {
          "name": "_to",
          "type": "address"
        }
      ],
      "name": "withdrawCommission",
      "outputs": [],
      "payable": false,
      "stateMutability": "nonpayable",
      "type": "function"
    },
    {
      "constant": false,
      "inputs": [
        {
          "name": "_newCEO",
          "type": "address"
        }
      ],
      "name": "setCEO",
      "outputs": [],
      "payable": false,
      "stateMutability": "nonpayable",
      "type": "function"
    },
    {
      "constant": false,
      "inputs": [
        {
          "name": "_newCOO",
          "type": "address"
        }
      ],
      "name": "setCOO",
      "outputs": [],
      "payable": false,
      "stateMutability": "nonpayable",
      "type": "function"
    },
    {
      "constant": true,
      "inputs": [
        {
          "name": "_tokenId",
          "type": "uint256"
        }
      ],
      "name": "getContributionBalanceForTokenGroup",
      "outputs": [
        {
          "name": "balance",
          "type": "uint256"
        }
      ],
      "payable": false,
      "stateMutability": "view",
      "type": "function"
    },
    {
      "constant": false,
      "inputs": [
        {
          "name": "_newCFO",
          "type": "address"
        }
      ],
      "name": "setCFO",
      "outputs": [],
      "payable": false,
      "stateMutability": "nonpayable",
      "type": "function"
    },
    {
      "constant": false,
      "inputs": [
        {
          "name": "_tokenId",
          "type": "uint256"
        }
      ],
      "name": "contributeToTokenGroup",
      "outputs": [],
      "payable": true,
      "stateMutability": "payable",
      "type": "function"
    },
    {
      "constant": false,
      "inputs": [],
      "name": "withdrawBalance",
      "outputs": [],
      "payable": false,
      "stateMutability": "nonpayable",
      "type": "function"
    },
    {
      "constant": true,
      "inputs": [],
      "name": "getGroupsContributedTo",
      "outputs": [
        {
          "name": "groupIds",
          "type": "uint256[]"
        }
      ],
      "payable": false,
      "stateMutability": "view",
      "type": "function"
    },
    {
      "constant": true,
      "inputs": [],
      "name": "MAX_CONTRIBUTION_SLOTS",
      "outputs": [
        {
          "name": "",
          "type": "uint256"
        }
      ],
      "payable": false,
      "stateMutability": "view",
      "type": "function"
    },
    {
      "constant": false,
      "inputs": [
        {
          "name": "_tokenId",
          "type": "uint256"
        }
      ],
      "name": "leaveTokenGroup",
      "outputs": [],
      "payable": false,
      "stateMutability": "nonpayable",
      "type": "function"
    },
    {
      "constant": true,
      "inputs": [
        {
          "name": "_tokenId",
          "type": "uint256"
        }
      ],
      "name": "getContributorsInTokenGroupCount",
      "outputs": [
        {
          "name": "count",
          "type": "uint256"
        }
      ],
      "payable": false,
      "stateMutability": "view",
      "type": "function"
    },
    {
      "constant": true,
      "inputs": [],
      "name": "groupCount",
      "outputs": [
        {
          "name": "",
          "type": "uint256"
        }
      ],
      "payable": false,
      "stateMutability": "view",
      "type": "function"
    },
    {
      "constant": true,
      "inputs": [],
      "name": "getLinkedContractAddress",
      "outputs": [
        {
          "name": "",
          "type": "address"
        }
      ],
      "payable": false,
      "stateMutability": "view",
      "type": "function"
    },
    {
      "constant": true,
      "inputs": [],
      "name": "cooAddress",
      "outputs": [
        {
          "name": "",
          "type": "address"
        }
      ],
      "payable": false,
      "stateMutability": "view",
      "type": "function"
    },
    {
      "constant": true,
      "inputs": [],
      "name": "getWithdrawableBalance",
      "outputs": [
        {
          "name": "balance",
          "type": "uint256"
        }
      ],
      "payable": false,
      "stateMutability": "view",
      "type": "function"
    },
    {
      "constant": true,
      "inputs": [],
      "name": "commissionBalance",
      "outputs": [
        {
          "name": "",
          "type": "uint256"
        }
      ],
      "payable": false,
      "stateMutability": "view",
      "type": "function"
    },
    {
      "constant": false,
      "inputs": [
        {
          "name": "_tokenId",
          "type": "uint256"
        }
      ],
      "name": "activatePurchase",
      "outputs": [],
      "payable": false,
      "stateMutability": "nonpayable",
      "type": "function"
    },
    {
      "constant": true,
      "inputs": [],
      "name": "linkedContract",
      "outputs": [
        {
          "name": "",
          "type": "address"
        }
      ],
      "payable": false,
      "stateMutability": "view",
      "type": "function"
    },
    {
      "constant": false,
      "inputs": [
        {
          "name": "_tokenId",
          "type": "uint256"
        }
      ],
      "name": "redistributeSaleProceeds",
      "outputs": [],
      "payable": false,
      "stateMutability": "nonpayable",
      "type": "function"
    },
    {
      "constant": true,
      "inputs": [
        {
          "name": "_tokenId",
          "type": "uint256"
        }
      ],
      "name": "getGroupPurchasedPrice",
      "outputs": [
        {
          "name": "price",
          "type": "uint256"
        }
      ],
      "payable": false,
      "stateMutability": "view",
      "type": "function"
    },
    {
      "inputs": [
        {
          "name": "contractAddress",
          "type": "address"
        }
      ],
      "payable": false,
      "stateMutability": "nonpayable",
      "type": "constructor"
    },
    {
      "payable": true,
      "stateMutability": "payable",
      "type": "fallback"
    },
    {
      "anonymous": false,
      "inputs": [
        {
          "indexed": false,
          "name": "_tokenId",
          "type": "uint256"
        },
        {
          "indexed": false,
          "name": "amount",
          "type": "uint256"
        }
      ],
      "name": "Commission",
      "type": "event"
    },
    {
      "anonymous": false,
      "inputs": [
        {
          "indexed": false,
          "name": "_from",
          "type": "address"
        },
        {
          "indexed": false,
          "name": "amount",
          "type": "uint256"
        }
      ],
      "name": "FundsReceived",
      "type": "event"
    },
    {
      "anonymous": false,
      "inputs": [
        {
          "indexed": false,
          "name": "_tokenId",
          "type": "uint256"
        },
        {
          "indexed": false,
          "name": "_to",
          "type": "address"
        },
        {
          "indexed": false,
          "name": "amount",
          "type": "uint256"
        }
      ],
      "name": "FundsRedistributed",
      "type": "event"
    },
    {
      "anonymous": false,
      "inputs": [
        {
          "indexed": false,
          "name": "_to",
          "type": "address"
        },
        {
          "indexed": false,
          "name": "amount",
          "type": "uint256"
        }
      ],
      "name": "FundsWithdrawn",
      "type": "event"
    },
    {
      "anonymous": false,
      "inputs": [
        {
          "indexed": false,
          "name": "_tokenId",
          "type": "uint256"
        },
        {
          "indexed": false,
          "name": "contributor",
          "type": "address"
        },
        {
          "indexed": false,
          "name": "groupBalance",
          "type": "uint256"
        },
        {
          "indexed": false,
          "name": "contributionAdded",
          "type": "uint256"
        }
      ],
      "name": "JoinGroup",
      "type": "event"
    },
    {
      "anonymous": false,
      "inputs": [
        {
          "indexed": false,
          "name": "_tokenId",
          "type": "uint256"
        },
        {
          "indexed": false,
          "name": "contributor",
          "type": "address"
        },
        {
          "indexed": false,
          "name": "groupBalance",
          "type": "uint256"
        },
        {
          "indexed": false,
          "name": "contributionSubtracted",
          "type": "uint256"
        }
      ],
      "name": "LeaveGroup",
      "type": "event"
    },
    {
      "anonymous": false,
      "inputs": [
        {
          "indexed": false,
          "name": "_tokenId",
          "type": "uint256"
        },
        {
          "indexed": false,
          "name": "balance",
          "type": "uint256"
        }
      ],
      "name": "TokenPurchased",
      "type": "event"
    }
  ],
  "bytecode": "0x606060405266be78bd4c57d0006000556707d72165f25ed000600155341561002657600080fd5b6040516020806129608339810160405280805190602001909190505033600760006101000a81548173ffffffffffffffffffffffffffffffffffffffff021916908373ffffffffffffffffffffffffffffffffffffffff16021790555033600860006101000a81548173ffffffffffffffffffffffffffffffffffffffff021916908373ffffffffffffffffffffffffffffffffffffffff16021790555033600960006101000a81548173ffffffffffffffffffffffffffffffffffffffff021916908373ffffffffffffffffffffffffffffffffffffffff16021790555080600660006101000a81548173ffffffffffffffffffffffffffffffffffffffff021916908373ffffffffffffffffffffffffffffffffffffffff1602179055505061280a806101566000396000f300606060405260043610610133576000357c0100000000000000000000000000000000000000000000000000000000900463ffffffff1680630519ce79146101a05780630a0f8168146101f55780630d112ec11461024a57806316c58d041461028157806327d7874c146102ba5780632ba73c15146102f35780633627657c1461032c5780634e0a337914610363578063594fef801461039c5780635fd8c710146103b4578063635a033e146103c9578063758fabcd146104335780637697bf941461045c578063777f59281461047f5780638f23b326146104b6578063a77ceb14146104df578063b047fb5014610534578063be788e7014610589578063dcf1a9ef146105b2578063e035aae3146105db578063e11527d4146105fe578063e9b30ff114610653578063ee097d7914610676575b7f8e47b87b0ef542cdfa1659c551d88bad38aa7f452d2bbb349ab7530dfec8be8f3334604051808373ffffffffffffffffffffffffffffffffffffffff1673ffffffffffffffffffffffffffffffffffffffff1681526020018281526020019250505060405180910390a1005b34156101ab57600080fd5b6101b36106ad565b604051808273ffffffffffffffffffffffffffffffffffffffff1673ffffffffffffffffffffffffffffffffffffffff16815260200191505060405180910390f35b341561020057600080fd5b6102086106d3565b604051808273ffffffffffffffffffffffffffffffffffffffff1673ffffffffffffffffffffffffffffffffffffffff16815260200191505060405180910390f35b341561025557600080fd5b61026b60048080359060200190919050506106f9565b6040518082815260200191505060405180910390f35b341561028c57600080fd5b6102b8600480803573ffffffffffffffffffffffffffffffffffffffff1690602001909190505061073b565b005b34156102c557600080fd5b6102f1600480803573ffffffffffffffffffffffffffffffffffffffff169060200190919050506108c1565b005b34156102fe57600080fd5b61032a600480803573ffffffffffffffffffffffffffffffffffffffff1690602001909190505061099d565b005b341561033757600080fd5b61034d6004808035906020019091905050610a79565b6040518082815260200191505060405180910390f35b341561036e57600080fd5b61039a600480803573ffffffffffffffffffffffffffffffffffffffff16906020019091905050610af8565b005b6103b26004808035906020019091905050610bd4565b005b34156103bf57600080fd5b6103c7611280565b005b34156103d457600080fd5b6103dc6113bf565b6040518080602001828103825283818151815260200191508051906020019060200280838360005b8381101561041f578082015181840152602081019050610404565b505050509050019250505060405180910390f35b341561043e57600080fd5b610446611494565b6040518082815260200191505060405180910390f35b341561046757600080fd5b61047d6004808035906020019091905050611499565b005b341561048a57600080fd5b6104a0600480803590602001909190505061196c565b6040518082815260200191505060405180910390f35b34156104c157600080fd5b6104c96119b1565b6040518082815260200191505060405180910390f35b34156104ea57600080fd5b6104f26119b7565b604051808273ffffffffffffffffffffffffffffffffffffffff1673ffffffffffffffffffffffffffffffffffffffff16815260200191505060405180910390f35b341561053f57600080fd5b6105476119e1565b604051808273ffffffffffffffffffffffffffffffffffffffff1673ffffffffffffffffffffffffffffffffffffffff16815260200191505060405180910390f35b341561059457600080fd5b61059c611a07565b6040518082815260200191505060405180910390f35b34156105bd57600080fd5b6105c5611a87565b6040518082815260200191505060405180910390f35b34156105e657600080fd5b6105fc6004808035906020019091905050611a8d565b005b341561060957600080fd5b610611611ce8565b604051808273ffffffffffffffffffffffffffffffffffffffff1673ffffffffffffffffffffffffffffffffffffffff16815260200191505060405180910390f35b341561065e57600080fd5b6106746004808035906020019091905050611d0e565b005b341561068157600080fd5b61069760048080359060200190919050506121b6565b6040518082815260200191505060405180910390f35b600960009054906101000a900473ffffffffffffffffffffffffffffffffffffffff1681565b600760009054906101000a900473ffffffffffffffffffffffffffffffffffffffff1681565b6000806002600084815260200190815260200160002090508060030160009054906101000a900460ff16151561072e57600080fd5b8060040154915050919050565b600080600960009054906101000a900473ffffffffffffffffffffffffffffffffffffffff1673ffffffffffffffffffffffffffffffffffffffff163373ffffffffffffffffffffffffffffffffffffffff1614151561079a57600080fd5b6005549150600073ffffffffffffffffffffffffffffffffffffffff168373ffffffffffffffffffffffffffffffffffffffff16146107d957826107fd565b600960009054906101000a900473ffffffffffffffffffffffffffffffffffffffff165b905060006005819055506000821115610851578073ffffffffffffffffffffffffffffffffffffffff166108fc839081150290604051600060405180830381858888f19350505050151561085057600080fd5b5b7feaff4b37086828766ad3268786972c0cd24259d4c87a80f9d3963a3c3d999b0d8183604051808373ffffffffffffffffffffffffffffffffffffffff1673ffffffffffffffffffffffffffffffffffffffff1681526020018281526020019250505060405180910390a1505050565b600760009054906101000a900473ffffffffffffffffffffffffffffffffffffffff1673ffffffffffffffffffffffffffffffffffffffff163373ffffffffffffffffffffffffffffffffffffffff1614151561091d57600080fd5b600073ffffffffffffffffffffffffffffffffffffffff168173ffffffffffffffffffffffffffffffffffffffff161415151561095957600080fd5b80600760006101000a81548173ffffffffffffffffffffffffffffffffffffffff021916908373ffffffffffffffffffffffffffffffffffffffff16021790555050565b600760009054906101000a900473ffffffffffffffffffffffffffffffffffffffff1673ffffffffffffffffffffffffffffffffffffffff163373ffffffffffffffffffffffffffffffffffffffff161415156109f957600080fd5b600073ffffffffffffffffffffffffffffffffffffffff168173ffffffffffffffffffffffffffffffffffffffff1614151515610a3557600080fd5b80600860006101000a81548173ffffffffffffffffffffffffffffffffffffffff021916908373ffffffffffffffffffffffffffffffffffffffff16021790555050565b6000806002600084815260200190815260200160002090508060030160009054906101000a900460ff161515610aae57600080fd5b8060020160003373ffffffffffffffffffffffffffffffffffffffff1673ffffffffffffffffffffffffffffffffffffffff16815260200190815260200160002054915050919050565b600760009054906101000a900473ffffffffffffffffffffffffffffffffffffffff1673ffffffffffffffffffffffffffffffffffffffff163373ffffffffffffffffffffffffffffffffffffffff16141515610b5457600080fd5b600073ffffffffffffffffffffffffffffffffffffffff168173ffffffffffffffffffffffffffffffffffffffff1614151515610b9057600080fd5b80600960006101000a81548173ffffffffffffffffffffffffffffffffffffffff021916908373ffffffffffffffffffffffffffffffffffffffff16021790555050565b6000806000806000806000339650610beb8761220b565b1515610bf657600080fd5b600260008981526020019081526020016000209550600360008873ffffffffffffffffffffffffffffffffffffffff1673ffffffffffffffffffffffffffffffffffffffff16815260200190815260200160002094508560030160009054906101000a900460ff161515610c975760018660030160006101000a81548160ff0219169083151502179055506001600460008282540192505081905550610ce8565b60008660010160008973ffffffffffffffffffffffffffffffffffffffff1673ffffffffffffffffffffffffffffffffffffffff16815260200190815260200160002054141515610ce757600080fd5b5b8460020160009054906101000a900460ff161515610d60576001600360008973ffffffffffffffffffffffffffffffffffffffff1673ffffffffffffffffffffffffffffffffffffffff16815260200190815260200160002060020160006101000a81548160ff021916908315150217905550610d85565b60008560000160008a815260200190815260200160002054141515610d8457600080fd5b5b60008660050154141515610d9857600080fd5b600660009054906101000a900473ffffffffffffffffffffffffffffffffffffffff1673ffffffffffffffffffffffffffffffffffffffff1663b9186d7d896000604051602001526040518263ffffffff167c010000000000000000000000000000000000000000000000000000000002815260040180828152602001915050602060405180830381600087803b1515610e3157600080fd5b6102c65a03f11515610e4257600080fd5b505050604051805190509350610e59846014612244565b3410151515610e6757600080fd5b600260008981526020019081526020016000206000018054806001018281610e8f91906126f5565b9160005260206000209001600089909190916101000a81548173ffffffffffffffffffffffffffffffffffffffff021916908373ffffffffffffffffffffffffffffffffffffffff160217905550925082600260008a815260200190815260200160002060010160008973ffffffffffffffffffffffffffffffffffffffff1673ffffffffffffffffffffffffffffffffffffffff16815260200190815260200160002081905550610f4584876004015461225f565b9150813411156110295781600260008a815260200190815260200160002060020160008973ffffffffffffffffffffffffffffffffffffffff1673ffffffffffffffffffffffffffffffffffffffff1681526020019081526020016000208190555081600260008a815260200190815260200160002060040160008282540192505081905550610fd5348361225f565b600360008973ffffffffffffffffffffffffffffffffffffffff1673ffffffffffffffffffffffffffffffffffffffff168152602001908152602001600020600301600082825401925050819055506110a6565b34600260008a815260200190815260200160002060020160008973ffffffffffffffffffffffffffffffffffffffff1673ffffffffffffffffffffffffffffffffffffffff1681526020019081526020016000208190555034600260008a8152602001908152602001600020600401600082825401925050819055505b600360008873ffffffffffffffffffffffffffffffffffffffff1673ffffffffffffffffffffffffffffffffffffffff16815260200190815260200160002060010180548060010182816110fa9190612721565b916000526020600020900160008a909190915055905080600360008973ffffffffffffffffffffffffffffffffffffffff1673ffffffffffffffffffffffffffffffffffffffff16815260200190815260200160002060000160008a8152602001908152602001600020819055507f69d18c620b0544cdc4de85bf8931344f76a272b538dfa310dc7915261910bb0a8888600260008c815260200190815260200160002060040154600260008d815260200190815260200160002060020160008c73ffffffffffffffffffffffffffffffffffffffff1673ffffffffffffffffffffffffffffffffffffffff16815260200190815260200160002054604051808581526020018473ffffffffffffffffffffffffffffffffffffffff1673ffffffffffffffffffffffffffffffffffffffff16815260200183815260200182815260200194505050505060405180910390a183600260008a815260200190815260200160002060040154101515611276576112758885612278565b5b5050505050505050565b60008061128c3361220b565b151561129757600080fd5b600360003373ffffffffffffffffffffffffffffffffffffffff1673ffffffffffffffffffffffffffffffffffffffff16815260200190815260200160002091508160020160009054906101000a900460ff1615156112f557600080fd5b816003015490506000826003018190555060008111156113bb573373ffffffffffffffffffffffffffffffffffffffff166108fc829081150290604051600060405180830381858888f19350505050151561134f57600080fd5b7feaff4b37086828766ad3268786972c0cd24259d4c87a80f9d3963a3c3d999b0d3382604051808373ffffffffffffffffffffffffffffffffffffffff1673ffffffffffffffffffffffffffffffffffffffff1681526020018281526020019250505060405180910390a15b5050565b6113c761274d565b60006113d23361220b565b15156113dd57600080fd5b600360003373ffffffffffffffffffffffffffffffffffffffff1673ffffffffffffffffffffffffffffffffffffffff16815260200190815260200160002090508060020160009054906101000a900460ff16151561143b57600080fd5b8060010180548060200260200160405190810160405280929190818152602001828054801561148957602002820191906000526020600020905b815481526020019060010190808311611475575b505050505091505090565b601481565b600080600080600080339550600260008881526020019081526020016000209450600360008773ffffffffffffffffffffffffffffffffffffffff1673ffffffffffffffffffffffffffffffffffffffff16815260200190815260200160002093506115048661220b565b151561150f57600080fd5b6000856005015414151561152257600080fd5b60008560010160008873ffffffffffffffffffffffffffffffffffffffff1673ffffffffffffffffffffffffffffffffffffffff1681526020019081526020016000205411151561157257600080fd5b60008460000160008981526020019081526020016000205411151561159657600080fd5b60018560010160008873ffffffffffffffffffffffffffffffffffffffff1673ffffffffffffffffffffffffffffffffffffffff16815260200190815260200160002054039250600185600001805490500391508460020160008773ffffffffffffffffffffffffffffffffffffffff1673ffffffffffffffffffffffffffffffffffffffff16815260200190815260200160002054905060006002600089815260200190815260200160002060010160008873ffffffffffffffffffffffffffffffffffffffff1673ffffffffffffffffffffffffffffffffffffffff1681526020019081526020016000208190555060006002600089815260200190815260200160002060020160008873ffffffffffffffffffffffffffffffffffffffff1673ffffffffffffffffffffffffffffffffffffffff1681526020019081526020016000208190555060008211156118275782600260008981526020019081526020016000206001016000876000018581548110151561171357fe5b906000526020600020900160009054906101000a900473ffffffffffffffffffffffffffffffffffffffff1673ffffffffffffffffffffffffffffffffffffffff1673ffffffffffffffffffffffffffffffffffffffff16815260200190815260200160002081905550846000018281548110151561178e57fe5b906000526020600020900160009054906101000a900473ffffffffffffffffffffffffffffffffffffffff1660026000898152602001908152602001600020600001848154811015156117dd57fe5b906000526020600020900160006101000a81548173ffffffffffffffffffffffffffffffffffffffff021916908373ffffffffffffffffffffffffffffffffffffffff1602179055505b600160026000898152602001908152602001600020600001818180549050039150816118539190612761565b50806002600089815260200190815260200160002060040160008282540392505081905550611882878761237b565b80600360008873ffffffffffffffffffffffffffffffffffffffff1673ffffffffffffffffffffffffffffffffffffffff168152602001908152602001600020600301600082825401925050819055507f662de99f26e5bd63aebe32d71288137ebf447c0afe598ba08d284cb6f1aee1af8787600260008b81526020019081526020016000206004015484604051808581526020018473ffffffffffffffffffffffffffffffffffffffff1673ffffffffffffffffffffffffffffffffffffffff16815260200183815260200182815260200194505050505060405180910390a150505050505050565b6000806002600084815260200190815260200160002090508060030160009054906101000a900460ff1615156119a157600080fd5b8060000180549050915050919050565b60045481565b6000600660009054906101000a900473ffffffffffffffffffffffffffffffffffffffff16905090565b600860009054906101000a900473ffffffffffffffffffffffffffffffffffffffff1681565b600080611a133361220b565b1515611a1e57600080fd5b600360003373ffffffffffffffffffffffffffffffffffffffff1673ffffffffffffffffffffffffffffffffffffffff16815260200190815260200160002090508060020160009054906101000a900460ff161515611a7c57600080fd5b806003015491505090565b60055481565b60008060026000848152602001908152602001600020915060008260020160003373ffffffffffffffffffffffffffffffffffffffff1673ffffffffffffffffffffffffffffffffffffffff168152602001908152602001600020541180611b425750600760009054906101000a900473ffffffffffffffffffffffffffffffffffffffff1673ffffffffffffffffffffffffffffffffffffffff163373ffffffffffffffffffffffffffffffffffffffff16145b80611b9a5750600860009054906101000a900473ffffffffffffffffffffffffffffffffffffffff1673ffffffffffffffffffffffffffffffffffffffff163373ffffffffffffffffffffffffffffffffffffffff16145b80611bf25750600960009054906101000a900473ffffffffffffffffffffffffffffffffffffffff1673ffffffffffffffffffffffffffffffffffffffff163373ffffffffffffffffffffffffffffffffffffffff16145b1515611bfd57600080fd5b600660009054906101000a900473ffffffffffffffffffffffffffffffffffffffff1673ffffffffffffffffffffffffffffffffffffffff1663b9186d7d846000604051602001526040518263ffffffff167c010000000000000000000000000000000000000000000000000000000002815260040180828152602001915050602060405180830381600087803b1515611c9657600080fd5b6102c65a03f11515611ca757600080fd5b50505060405180519050905080826004015410151515611cc657600080fd5b60008260050154141515611cd957600080fd5b611ce38382612278565b505050565b600660009054906101000a900473ffffffffffffffffffffffffffffffffffffffff1681565b6000806000806000806000806000600860009054906101000a900473ffffffffffffffffffffffffffffffffffffffff1673ffffffffffffffffffffffffffffffffffffffff163373ffffffffffffffffffffffffffffffffffffffff16141515611d7857600080fd5b600260008b815260200190815260200160002098508860030160009054906101000a900460ff161515611daa57600080fd5b60008960050154111515611dbd57600080fd5b600660009054906101000a900473ffffffffffffffffffffffffffffffffffffffff1673ffffffffffffffffffffffffffffffffffffffff1663b9186d7d8b6000604051602001526040518263ffffffff167c010000000000000000000000000000000000000000000000000000000002815260040180828152602001915050602060405180830381600087803b1515611e5657600080fd5b6102c65a03f11515611e6757600080fd5b505050604051805190509750611e80896005015461264f565b96508688111515611e9057600080fd5b611ea5611e9e88605e6126ba565b6064612244565b9550611ebc611eb58760616126ba565b6064612244565b9450859350600092505b88600001805490508310156120ff578860000183815481101515611ee657fe5b906000526020600020900160009054906101000a900473ffffffffffffffffffffffffffffffffffffffff169150611f6c611f62868b60020160008673ffffffffffffffffffffffffffffffffffffffff1673ffffffffffffffffffffffffffffffffffffffff168152602001908152602001600020546126ba565b8a60040154612244565b905080600360008473ffffffffffffffffffffffffffffffffffffffff1673ffffffffffffffffffffffffffffffffffffffff16815260200190815260200160002060030160008282540192505081905550611fc88a8361237b565b6000600260008c815260200190815260200160002060020160008473ffffffffffffffffffffffffffffffffffffffff1673ffffffffffffffffffffffffffffffffffffffff168152602001908152602001600020819055506000600260008c815260200190815260200160002060010160008473ffffffffffffffffffffffffffffffffffffffff1673ffffffffffffffffffffffffffffffffffffffff1681526020019081526020016000208190555080840393507f4258d4fe3f30ad61bedbbb0649b2b2c827c7f6116019e4bc8940e5a786dbae558a8383604051808481526020018373ffffffffffffffffffffffffffffffffffffffff1673ffffffffffffffffffffffffffffffffffffffff168152602001828152602001935050505060405180910390a18280600101935050611ec6565b836005600082825401925050819055507f13df55cf2023cb8466d2e2429e76883392c117ece6befda766f9314c9997142a8a85604051808381526020018281526020019250505060405180910390a16000600260008c8152602001908152602001600020600001816121719190612761565b506000600260008c8152602001908152602001600020600401819055506000600260008c81526020019081526020016000206005018190555050505050505050505050565b6000806002600084815260200190815260200160002090508060030160009054906101000a900460ff1615156121eb57600080fd5b600081600501541115156121fe57600080fd5b8060050154915050919050565b60008073ffffffffffffffffffffffffffffffffffffffff168273ffffffffffffffffffffffffffffffffffffffff1614159050919050565b600080828481151561225257fe5b0490508091505092915050565b600082821115151561226d57fe5b818303905092915050565b806002600084815260200190815260200160002060050181905550600660009054906101000a900473ffffffffffffffffffffffffffffffffffffffff1673ffffffffffffffffffffffffffffffffffffffff1663efef39a182846040518363ffffffff167c0100000000000000000000000000000000000000000000000000000000028152600401808281526020019150506000604051808303818588803b151561232357600080fd5b6125ee5a03f1151561233457600080fd5b505050507f8e9ad85f153412974b951156ecd7f4153ae7ae208664792e8a5f8a711786b9388282604051808381526020018281526020019250505060405180910390a15050565b6000806001600360008573ffffffffffffffffffffffffffffffffffffffff1673ffffffffffffffffffffffffffffffffffffffff1681526020019081526020016000206000016000868152602001908152602001600020540391506001600360008573ffffffffffffffffffffffffffffffffffffffff1673ffffffffffffffffffffffffffffffffffffffff168152602001908152602001600020600101805490500390506000600360008573ffffffffffffffffffffffffffffffffffffffff1673ffffffffffffffffffffffffffffffffffffffff16815260200190815260200160002060000160008681526020019081526020016000208190555060008111156125f05781600360008573ffffffffffffffffffffffffffffffffffffffff1673ffffffffffffffffffffffffffffffffffffffff1681526020019081526020016000206000016000600360008773ffffffffffffffffffffffffffffffffffffffff1673ffffffffffffffffffffffffffffffffffffffff1681526020019081526020016000206001018481548110151561251857fe5b906000526020600020900154815260200190815260200160002081905550600360008473ffffffffffffffffffffffffffffffffffffffff1673ffffffffffffffffffffffffffffffffffffffff1681526020019081526020016000206001018181548110151561258557fe5b906000526020600020900154600360008573ffffffffffffffffffffffffffffffffffffffff1673ffffffffffffffffffffffffffffffffffffffff168152602001908152602001600020600101838154811015156125e057fe5b9060005260206000209001819055505b6001600360008573ffffffffffffffffffffffffffffffffffffffff1673ffffffffffffffffffffffffffffffffffffffff16815260200190815260200160002060010181818054905003915081612648919061278d565b5050505050565b600080548210156126765761266f6126688360c86126ba565b605e612244565b90506126b5565b60015482101561269c5761269561268e8360786126ba565b605e612244565b90506126b4565b6126b16126aa8360736126ba565b605e612244565b90505b5b919050565b60008060008414156126cf57600091506126ee565b82840290508284828115156126e057fe5b041415156126ea57fe5b8091505b5092915050565b81548183558181151161271c5781836000526020600020918201910161271b91906127b9565b5b505050565b8154818355818115116127485781836000526020600020918201910161274791906127b9565b5b505050565b602060405190810160405280600081525090565b8154818355818115116127885781836000526020600020918201910161278791906127b9565b5b505050565b8154818355818115116127b4578183600052602060002091820191016127b391906127b9565b5b505050565b6127db91905b808211156127d75760008160009055506001016127bf565b5090565b905600a165627a7a72305820c901e6ee6e71fe0a1b2b3185a4d5918bc3d6b5ac0b5c8971e1edbd4d43f9e03c0029",
  "source": "pragma solidity ^0.4.18;\nimport \"zeppelin-solidity/contracts/math/SafeMath.sol\"; // solhint-disable-line\nimport \"./CelebrityToken.sol\";\n\n\ncontract GroupBuyContract {\n  /*** CONSTANTS ***/\n  uint256 public constant MAX_CONTRIBUTION_SLOTS = 20;\n  uint256 private firstStepLimit =  0.053613 ether;\n  uint256 private secondStepLimit = 0.564957 ether;\n\n  /*** DATATYPES ***/\n  // @dev A Group is created for all the contributors who want to contribute\n  //  to the purchase of a particular token.\n  struct Group {\n    // Array of addresses of contributors in group\n    address[] contributorArr;\n    // Maps address to an address's position (+ 1) in the contributorArr;\n    // 1 is added to the position because zero is the default value in the mapping\n    mapping(address => uint256) addressToContributorArrIndex;\n    mapping(address => uint256) addressToContribution; // user address to amount contributed\n    bool exists; // For tracking whether a group has been initialized or not\n    uint256 contributedBalance; // Total amount contributed\n    uint256 purchasePrice; // Price of purchased token\n  }\n\n  // @dev A Contributor record is created for each user participating in\n  //  this group buy contract. It stores the group ids the user contributed to\n  //  and a record of their sale proceeds.\n  struct Contributor {\n    // Maps tokenId to an tokenId's position (+ 1) in the groupArr;\n    // 1 is added to the position because zero is the default value in the mapping\n    mapping(uint256 => uint) tokenIdToGroupArrIndex;\n    // Array of tokenIds contributed to by a contributor\n    uint256[] groupArr;\n    bool exists;\n    // Ledger for withdrawable balance for this user.\n    //  Funds can come from excess paid into a groupBuy,\n    //  or from withdrawing from a group, or from\n    //  sale proceeds from a token.\n    uint256 withdrawableBalance;\n  }\n\n  /*** EVENTS ***/\n  // @notice Event noting commission paid to contract\n  event Commission(uint256 _tokenId, uint256 amount);\n\n  // @notice Event signifiying that contract received funds via fallback fn\n  event FundsReceived(address _from, uint256 amount);\n\n  // @notice Event noting a fund distribution for user _to from sale of token _tokenId\n  event FundsRedistributed(uint256 _tokenId, address _to, uint256 amount);\n\n  // @notice Event marking a withdrawal of amount by user _to\n  event FundsWithdrawn(address _to, uint256 amount);\n\n  // @notice Event for when a contributor joins a token group _tokenId\n  event JoinGroup(\n    uint256 _tokenId,\n    address contributor,\n    uint256 groupBalance,\n    uint256 contributionAdded\n  );\n\n  // @notice Event for when a contributor leaves a token group\n  event LeaveGroup(\n    uint256 _tokenId,\n    address contributor,\n    uint256 groupBalance,\n    uint256 contributionSubtracted\n  );\n\n  // @notice Event for when a token group purchases a token\n  event TokenPurchased(uint256 _tokenId, uint256 balance);\n\n  /*** STORAGE ***/\n  /// @dev A mapping from token IDs to the group associated with that token.\n  mapping(uint256 => Group) private tokenIndexToGroup;\n\n  // @dev A mapping from owner address to available balance not held by a Group.\n  mapping(address => Contributor) private userAddressToContributor;\n\n  uint256 public groupCount;\n  uint256 public commissionBalance;\n\n  CelebrityToken public linkedContract;\n\n  // The addresses of the accounts (or contracts) that can execute actions within each roles.\n  address public ceoAddress;\n  address public cooAddress;\n  address public cfoAddress;\n\n  /*** ACCESS MODIFIERS ***/\n  /// @dev Access modifier for CEO-only functionality\n  modifier onlyCEO() {\n    require(msg.sender == ceoAddress);\n    _;\n  }\n\n  /// @dev Access modifier for COO-only functionality\n  modifier onlyCOO() {\n    require(msg.sender == cooAddress);\n    _;\n  }\n\n  /// @dev Access modifier for CFO-only functionality\n  modifier onlyCFO() {\n    require(msg.sender == cfoAddress);\n    _;\n  }\n\n  /// @dev Access modifier for contract managers only functionality\n  modifier onlyCLevel() {\n    require(\n      msg.sender == ceoAddress ||\n      msg.sender == cooAddress ||\n      msg.sender == cfoAddress\n    );\n    _;\n  }\n\n  /*** CONSTRUCTOR ***/\n  function GroupBuyContract(address contractAddress) public {\n    ceoAddress = msg.sender;\n    cooAddress = msg.sender;\n    cfoAddress = msg.sender;\n    linkedContract = CelebrityToken(contractAddress);\n  }\n\n  /*** PUBLIC FUNCTIONS ***/\n  /// @notice Fallback fn for receiving ether\n  function () public payable {\n    FundsReceived(msg.sender, msg.value);\n  }\n\n  /** Contract Verification Fns **/\n  /// @notice Get address of connected contract\n  function getLinkedContractAddress() public view returns (address) {\n    return linkedContract;\n  }\n\n  /** Information Query Fns **/\n  /// @notice Get contributed balance in a particular token\n  /// @param _tokenId The ID of the token to be queried\n  function getContributionBalanceForTokenGroup(uint256 _tokenId) public view returns (uint balance) {\n    var group = tokenIndexToGroup[_tokenId];\n    require(group.exists);\n    balance = group.addressToContribution[msg.sender];\n  }\n\n  /// @notice Get no. of contributors in a Group\n  /// @param _tokenId The ID of the token to be queried\n  function getContributorsInTokenGroupCount(uint256 _tokenId) public view returns (uint count) {\n    var group = tokenIndexToGroup[_tokenId];\n    require(group.exists);\n    count = group.contributorArr.length;\n  }\n\n  /// @notice Get list of tokenIds of the groups user contributed to\n  function getGroupsContributedTo() public view returns (uint256[] groupIds) {\n    // Safety check to prevent against an unexpected 0x0 default.\n    require(_addressNotNull(msg.sender));\n\n    var contributor = userAddressToContributor[msg.sender];\n    require(contributor.exists);\n\n    groupIds = contributor.groupArr;\n  }\n\n  /// @notice Retrieve price at which token group purchased token at\n  function getGroupPurchasedPrice(uint256 _tokenId) public view returns (uint256 price) {\n    var group = tokenIndexToGroup[_tokenId];\n    require(group.exists);\n    require(group.purchasePrice > 0);\n    price = group.purchasePrice;\n  }\n\n  /// @notice Get withdrawable balance from sale proceeds\n  function getWithdrawableBalance() public view returns (uint256 balance) {\n    // Safety check to prevent against an unexpected 0x0 default.\n    require(_addressNotNull(msg.sender));\n\n    var contributor = userAddressToContributor[msg.sender];\n    require(contributor.exists);\n\n    balance = contributor.withdrawableBalance;\n  }\n\n  /// @notice Get contributed balance\n  /// @param _tokenId The ID of the token to be queried\n  function getTokenGroupTotalBalance(uint256 _tokenId) public view returns (uint balance) {\n    var group = tokenIndexToGroup[_tokenId];\n    require(group.exists);\n    balance = group.contributedBalance;\n  }\n\n  /** Action Fns **/\n  /// @notice Backup function for activating token purchase\n  ///  requires sender to be a member of the group or CLevel\n  /// @param _tokenId The ID of the Token purchase group to be joined\n  function activatePurchase(uint256 _tokenId) public {\n    var group = tokenIndexToGroup[_tokenId];\n    require(group.addressToContribution[msg.sender] > 0 ||\n            msg.sender == ceoAddress ||\n            msg.sender == cooAddress ||\n            msg.sender == cfoAddress);\n\n    // Safety check that enough money has been contributed to group\n    var price = linkedContract.priceOf(_tokenId);\n    require(group.contributedBalance >= price);\n\n    // Safety check that token had not be purchased yet\n    require(group.purchasePrice == 0);\n\n    _purchase(_tokenId, price);\n  }\n\n  /// @notice Allow user to join purchase group\n  /// @param _tokenId The ID of the Token purchase group to be joined\n  function contributeToTokenGroup(uint256 _tokenId) public payable {\n    address userAdd = msg.sender;\n    // Safety check to prevent against an unexpected 0x0 default.\n    require(_addressNotNull(userAdd));\n\n    /// Safety check to make sure contributor has not already joined this group buy\n    var group = tokenIndexToGroup[_tokenId];\n    var contributor = userAddressToContributor[userAdd];\n    if (!group.exists) { // Create group if not exists\n      group.exists = true;\n      groupCount += 1;\n    } else {\n      require(group.addressToContributorArrIndex[userAdd] == 0);\n    }\n\n    if (!contributor.exists) { // Create contributor if not exists\n      userAddressToContributor[userAdd].exists = true;\n    } else {\n      require(contributor.tokenIdToGroupArrIndex[_tokenId] == 0);\n    }\n\n    // Safety check to make sure group isn't currently holding onto token\n    //  or has a group record stored (for redistribution)\n    require(group.purchasePrice == 0);\n\n    /// Safety check to ensure amount contributed is higher than min portion of\n    ///  purchase price\n    uint256 tokenPrice = linkedContract.priceOf(_tokenId);\n    require(msg.value >= uint256(SafeMath.div(tokenPrice, MAX_CONTRIBUTION_SLOTS)));\n\n    // Index saved is 1 + the array's index, b/c 0 is the default value in a mapping,\n    //  so as stored on the mapping, array index will begin at 1\n    uint256 cIndex = tokenIndexToGroup[_tokenId].contributorArr.push(userAdd);\n    tokenIndexToGroup[_tokenId].addressToContributorArrIndex[userAdd] = cIndex;\n\n    uint256 amountNeeded = SafeMath.sub(tokenPrice, group.contributedBalance);\n    if (msg.value > amountNeeded) {\n      tokenIndexToGroup[_tokenId].addressToContribution[userAdd] = amountNeeded;\n      tokenIndexToGroup[_tokenId].contributedBalance += amountNeeded;\n      // refund excess paid\n      userAddressToContributor[userAdd].withdrawableBalance += SafeMath.sub(msg.value, amountNeeded);\n    } else {\n      tokenIndexToGroup[_tokenId].addressToContribution[userAdd] = msg.value;\n      tokenIndexToGroup[_tokenId].contributedBalance += msg.value;\n    }\n\n    // Index saved is 1 + the array's index, b/c 0 is the default value in a mapping,\n    //  so as stored on the mapping, array index will begin at 1\n    uint256 gIndex = userAddressToContributor[userAdd].groupArr.push(_tokenId);\n    userAddressToContributor[userAdd].tokenIdToGroupArrIndex[_tokenId] = gIndex;\n\n    JoinGroup(\n      _tokenId,\n      userAdd,\n      tokenIndexToGroup[_tokenId].contributedBalance,\n      tokenIndexToGroup[_tokenId].addressToContribution[userAdd]\n    );\n\n    // Purchase token if enough funds contributed\n    if (tokenIndexToGroup[_tokenId].contributedBalance >= tokenPrice) {\n      _purchase(_tokenId, tokenPrice);\n    }\n  }\n\n  /// @notice Allow redistribution of funds after sale\n  /// @param _tokenId The ID of the Token purchase group\n  function redistributeSaleProceeds(uint256 _tokenId) public onlyCOO {\n    var group = tokenIndexToGroup[_tokenId];\n\n    // Safety check to make sure group exists and had purchased the token\n    require(group.exists);\n    require(group.purchasePrice > 0);\n\n    // Safety check to make sure token had been sold\n    uint256 currPrice = linkedContract.priceOf(_tokenId);\n    uint256 soldPrice = _newPrice(group.purchasePrice);\n    require(currPrice > soldPrice);\n\n    uint256 paymentIntoContract = uint256(SafeMath.div(SafeMath.mul(soldPrice, 94), 100));\n    uint256 fundsForDistribution = uint256(SafeMath.div(SafeMath.mul(paymentIntoContract, 97), 100));\n    uint256 commission = paymentIntoContract;\n\n    for (uint i = 0; i < group.contributorArr.length; i++) {\n      address userAdd = group.contributorArr[i];\n\n      // calculate contributor's sale proceeds and add to their withdrawable balance\n      uint256 userProceeds = uint256(SafeMath.div(SafeMath.mul(fundsForDistribution,\n        group.addressToContribution[userAdd]), group.contributedBalance));\n      userAddressToContributor[userAdd].withdrawableBalance += userProceeds;\n\n      _clearGroupRecordInContributor(_tokenId, userAdd);\n\n      // clear contributor record on group\n      tokenIndexToGroup[_tokenId].addressToContribution[userAdd] = 0;\n      tokenIndexToGroup[_tokenId].addressToContributorArrIndex[userAdd] = 0;\n      commission -= userProceeds;\n      FundsRedistributed(_tokenId, userAdd, userProceeds);\n    }\n\n    commissionBalance += commission;\n    Commission(_tokenId, commission);\n    tokenIndexToGroup[_tokenId].contributorArr.length = 0;\n    tokenIndexToGroup[_tokenId].contributedBalance = 0;\n    tokenIndexToGroup[_tokenId].purchasePrice = 0;\n  }\n\n  /// @notice Allow user to leave purchase group; note that their contribution\n  ///  will be added to their withdrawable balance, and not directly refunded\n  /// @param _tokenId The ID of the Token purchase group to be left\n  function leaveTokenGroup(uint256 _tokenId) public {\n    address userAdd = msg.sender;\n\n    var group = tokenIndexToGroup[_tokenId];\n    var contributor = userAddressToContributor[userAdd];\n\n    // Safety check to prevent against an unexpected 0x0 default.\n    require(_addressNotNull(userAdd));\n\n    // Safety check to make sure group hasn't purchased token already\n    require(group.purchasePrice == 0);\n\n    // Safety checks to ensure contributor has contributed to group\n    require(group.addressToContributorArrIndex[userAdd] > 0);\n    require(contributor.tokenIdToGroupArrIndex[_tokenId] > 0);\n\n    // Index was saved is 1 + the array's index, b/c 0 is the default value\n    //  in a mapping.\n    uint cIndex = group.addressToContributorArrIndex[userAdd] - 1;\n    uint lastCIndex = group.contributorArr.length - 1;\n    uint refundBalance = group.addressToContribution[userAdd];\n\n    // clear contribution record in group\n    tokenIndexToGroup[_tokenId].addressToContributorArrIndex[userAdd] = 0;\n    tokenIndexToGroup[_tokenId].addressToContribution[userAdd] = 0;\n\n    // move address in last position to deleted contributor's spot\n    if (lastCIndex > 0) {\n      tokenIndexToGroup[_tokenId].addressToContributorArrIndex[group.contributorArr[lastCIndex]] = cIndex;\n      tokenIndexToGroup[_tokenId].contributorArr[cIndex] = group.contributorArr[lastCIndex];\n    }\n\n    tokenIndexToGroup[_tokenId].contributorArr.length -= 1;\n    tokenIndexToGroup[_tokenId].contributedBalance -= refundBalance;\n\n    _clearGroupRecordInContributor(_tokenId, userAdd);\n\n    userAddressToContributor[userAdd].withdrawableBalance += refundBalance;\n\n    LeaveGroup(\n      _tokenId,\n      userAdd,\n      tokenIndexToGroup[_tokenId].contributedBalance,\n      refundBalance\n    );\n  }\n\n  /// @dev Withdraw balance from own account\n  function withdrawBalance() public {\n    require(_addressNotNull(msg.sender));\n    var contributor = userAddressToContributor[msg.sender];\n    require(contributor.exists);\n\n    uint256 balance = contributor.withdrawableBalance;\n    contributor.withdrawableBalance = 0;\n\n    if (balance > 0) {\n      msg.sender.transfer(balance);\n      FundsWithdrawn(msg.sender, balance);\n    }\n  }\n\n  /// @dev Withdraws sale commission, CFO-only functionality\n  /// @param _to Address for commission to be sent to\n  function withdrawCommission(address _to) public onlyCFO {\n    uint256 balance = commissionBalance;\n    address transferee = (_to == address(0)) ? cfoAddress : _to;\n    commissionBalance = 0;\n    if (balance > 0) {\n      transferee.transfer(balance);\n    }\n    FundsWithdrawn(transferee, balance);\n  }\n\n  /// @dev Assigns a new address to act as the CEO. Only available to the current CEO.\n  /// @param _newCEO The address of the new CEO\n  function setCEO(address _newCEO) public onlyCEO {\n    require(_newCEO != address(0));\n\n    ceoAddress = _newCEO;\n  }\n\n  /// @dev Assigns a new address to act as the CFO. Only available to the current CEO.\n  /// @param _newCFO The address of the new CFO\n  function setCFO(address _newCFO) public onlyCEO {\n    require(_newCFO != address(0));\n\n    cfoAddress = _newCFO;\n  }\n\n  /// @dev Assigns a new address to act as the COO. Only available to the current CEO.\n  /// @param _newCOO The address of the new COO\n  function setCOO(address _newCOO) public onlyCEO {\n    require(_newCOO != address(0));\n\n    cooAddress = _newCOO;\n  }\n\n  /*** PRIVATE FUNCTIONS ***/\n  /// @dev Safety check on _to address to prevent against an unexpected 0x0 default.\n  /// @param _to Address to be checked\n  function _addressNotNull(address _to) private pure returns (bool) {\n    return _to != address(0);\n  }\n\n  /// @dev Clears record of a Group from a Contributor's record\n  /// @param _tokenId Token ID of Group to be cleared\n  /// @param _userAdd Address of Contributor\n  function _clearGroupRecordInContributor(uint256 _tokenId, address _userAdd) private {\n    // Index saved is 1 + the array's index, b/c 0 is the default value\n    //  in a mapping.\n    uint gIndex = userAddressToContributor[_userAdd].tokenIdToGroupArrIndex[_tokenId] - 1;\n    uint lastGIndex = userAddressToContributor[_userAdd].groupArr.length - 1;\n\n    // clear Group record in Contributor\n    userAddressToContributor[_userAdd].tokenIdToGroupArrIndex[_tokenId] = 0;\n\n    // move tokenId from end of array to deleted Group record's spot\n    if (lastGIndex > 0) {\n      userAddressToContributor[_userAdd].tokenIdToGroupArrIndex[userAddressToContributor[_userAdd].groupArr[lastGIndex]] = gIndex;\n      userAddressToContributor[_userAdd].groupArr[gIndex] = userAddressToContributor[_userAdd].groupArr[lastGIndex];\n    }\n\n    userAddressToContributor[_userAdd].groupArr.length -= 1;\n  }\n\n  /// @dev Calculates next price of celebrity token\n  /// @param _oldPrice Previous price\n  function _newPrice(uint256 _oldPrice) private view returns (uint256 newPrice) {\n    if (_oldPrice < firstStepLimit) {\n      // first stage\n      newPrice = SafeMath.div(SafeMath.mul(_oldPrice, 200), 94);\n    } else if (_oldPrice < secondStepLimit) {\n      // second stage\n      newPrice = SafeMath.div(SafeMath.mul(_oldPrice, 120), 94);\n    } else {\n      // third stage\n      newPrice = SafeMath.div(SafeMath.mul(_oldPrice, 115), 94);\n    }\n  }\n\n  /// @dev Calls CelebrityToken purchase fn and updates records\n  /// @param _tokenId Token ID of token to be purchased\n  /// @param _amount Amount to be paid to CelebrityToken\n  function _purchase(uint256 _tokenId, uint256 _amount) private {\n    tokenIndexToGroup[_tokenId].purchasePrice = _amount;\n    linkedContract.purchase.value(_amount)(_tokenId);\n    TokenPurchased(_tokenId, _amount);\n  }\n}\n",
  "sourcePath": "/Users/dawn/Dropbox/Projects/crypt-group/contracts/GroupBuyContract.sol",
  "compiler": {
    "name": "solc",
    "version": "0.4.18+commit.9cf6e910.Emscripten.clang"
  },
  "schemaVersion": "1.0.1",
  "updatedAt": "2018-02-06T12:15:56.162Z"
}