{
  "contractName": "GroupBuyContract",
  "abi": [
    {
      "constant": true,
      "inputs": [],
      "name": "cfoAddress",
      "outputs": [
        {
          "name": "",
          "type": "address"
        }
      ],
      "payable": false,
      "stateMutability": "view",
      "type": "function"
    },
    {
      "constant": true,
      "inputs": [],
      "name": "ceoAddress",
      "outputs": [
        {
          "name": "",
          "type": "address"
        }
      ],
      "payable": false,
      "stateMutability": "view",
      "type": "function"
    },
    {
      "constant": true,
      "inputs": [
        {
          "name": "_tokenId",
          "type": "uint256"
        }
      ],
      "name": "getTokenGroupTotalBalance",
      "outputs": [
        {
          "name": "balance",
          "type": "uint256"
        }
      ],
      "payable": false,
      "stateMutability": "view",
      "type": "function"
    },
    {
      "constant": false,
      "inputs": [
        {
          "name": "_newCEO",
          "type": "address"
        }
      ],
      "name": "setCEO",
      "outputs": [],
      "payable": false,
      "stateMutability": "nonpayable",
      "type": "function"
    },
    {
      "constant": false,
      "inputs": [
        {
          "name": "_newCOO",
          "type": "address"
        }
      ],
      "name": "setCOO",
      "outputs": [],
      "payable": false,
      "stateMutability": "nonpayable",
      "type": "function"
    },
    {
      "constant": true,
      "inputs": [
        {
          "name": "_tokenId",
          "type": "uint256"
        }
      ],
      "name": "getContributionBalanceForTokenGroup",
      "outputs": [
        {
          "name": "balance",
          "type": "uint256"
        }
      ],
      "payable": false,
      "stateMutability": "view",
      "type": "function"
    },
    {
      "constant": false,
      "inputs": [
        {
          "name": "_newCFO",
          "type": "address"
        }
      ],
      "name": "setCFO",
      "outputs": [],
      "payable": false,
      "stateMutability": "nonpayable",
      "type": "function"
    },
    {
      "constant": false,
      "inputs": [
        {
          "name": "_tokenId",
          "type": "uint256"
        }
      ],
      "name": "withdrawFromTokenGroup",
      "outputs": [],
      "payable": false,
      "stateMutability": "nonpayable",
      "type": "function"
    },
    {
      "constant": false,
      "inputs": [
        {
          "name": "_tokenId",
          "type": "uint256"
        }
      ],
      "name": "contributeToTokenGroup",
      "outputs": [],
      "payable": true,
      "stateMutability": "payable",
      "type": "function"
    },
    {
      "constant": true,
      "inputs": [],
      "name": "MAX_CONTRIBUTION_SLOTS",
      "outputs": [
        {
          "name": "",
          "type": "uint256"
        }
      ],
      "payable": false,
      "stateMutability": "view",
      "type": "function"
    },
    {
      "constant": true,
      "inputs": [
        {
          "name": "_tokenId",
          "type": "uint256"
        }
      ],
      "name": "getContributorsInTokenGroupCount",
      "outputs": [
        {
          "name": "count",
          "type": "uint256"
        }
      ],
      "payable": false,
      "stateMutability": "view",
      "type": "function"
    },
    {
      "constant": true,
      "inputs": [],
      "name": "isGroupBuy",
      "outputs": [
        {
          "name": "",
          "type": "bool"
        }
      ],
      "payable": false,
      "stateMutability": "view",
      "type": "function"
    },
    {
      "constant": true,
      "inputs": [],
      "name": "groupCount",
      "outputs": [
        {
          "name": "",
          "type": "uint256"
        }
      ],
      "payable": false,
      "stateMutability": "view",
      "type": "function"
    },
    {
      "constant": true,
      "inputs": [],
      "name": "cooAddress",
      "outputs": [
        {
          "name": "",
          "type": "address"
        }
      ],
      "payable": false,
      "stateMutability": "view",
      "type": "function"
    },
    {
      "constant": true,
      "inputs": [],
      "name": "usersBalance",
      "outputs": [
        {
          "name": "",
          "type": "uint256"
        }
      ],
      "payable": false,
      "stateMutability": "view",
      "type": "function"
    },
    {
      "inputs": [
        {
          "name": "contractAddress",
          "type": "address"
        }
      ],
      "payable": false,
      "stateMutability": "nonpayable",
      "type": "constructor"
    },
    {
      "payable": true,
      "stateMutability": "payable",
      "type": "fallback"
    },
    {
      "anonymous": false,
      "inputs": [
        {
          "indexed": false,
          "name": "amount",
          "type": "uint256"
        },
        {
          "indexed": false,
          "name": "_from",
          "type": "address"
        }
      ],
      "name": "FundsReceived",
      "type": "event"
    },
    {
      "anonymous": false,
      "inputs": [
        {
          "indexed": false,
          "name": "_tokenId",
          "type": "uint256"
        },
        {
          "indexed": false,
          "name": "contributor",
          "type": "address"
        },
        {
          "indexed": false,
          "name": "groupBalance",
          "type": "uint256"
        },
        {
          "indexed": false,
          "name": "netChange",
          "type": "uint256"
        }
      ],
      "name": "Contribution",
      "type": "event"
    },
    {
      "anonymous": false,
      "inputs": [
        {
          "indexed": false,
          "name": "balance",
          "type": "uint256"
        },
        {
          "indexed": false,
          "name": "origin",
          "type": "address"
        }
      ],
      "name": "TokenPurchaseAttempt",
      "type": "event"
    },
    {
      "anonymous": false,
      "inputs": [
        {
          "indexed": false,
          "name": "balance",
          "type": "uint256"
        },
        {
          "indexed": false,
          "name": "origin",
          "type": "address"
        }
      ],
      "name": "TokenSold",
      "type": "event"
    }
  ],
  "bytecode": "0x606060405260016000806101000a81548160ff021916908315150217905550341561002957600080fd5b6040516020806117e88339810160405280805190602001909190505033600660006101000a81548173ffffffffffffffffffffffffffffffffffffffff021916908373ffffffffffffffffffffffffffffffffffffffff16021790555033600760006101000a81548173ffffffffffffffffffffffffffffffffffffffff021916908373ffffffffffffffffffffffffffffffffffffffff16021790555033600860006101000a81548173ffffffffffffffffffffffffffffffffffffffff021916908373ffffffffffffffffffffffffffffffffffffffff16021790555080600560006101000a81548173ffffffffffffffffffffffffffffffffffffffff021916908373ffffffffffffffffffffffffffffffffffffffff1602179055505061168f806101596000396000f3006060604052600436106100db576000357c0100000000000000000000000000000000000000000000000000000000900463ffffffff1680630519ce79146101485780630a0f81681461019d5780630d112ec1146101f257806327d7874c146102295780632ba73c15146102625780633627657c1461029b5780634e0a3379146102d2578063506bfcc51461030b578063594fef801461032e578063758fabcd14610346578063777f59281461036f578063892d0119146103a65780638f23b326146103d3578063b047fb50146103fc578063cfd9686914610451575b7fa0b6ed69c727bcce4cfdf30bc2777d7b7007d936b4a4dea135cbf6622fe4a58c3433604051808381526020018273ffffffffffffffffffffffffffffffffffffffff1673ffffffffffffffffffffffffffffffffffffffff1681526020019250505060405180910390a1005b341561015357600080fd5b61015b61047a565b604051808273ffffffffffffffffffffffffffffffffffffffff1673ffffffffffffffffffffffffffffffffffffffff16815260200191505060405180910390f35b34156101a857600080fd5b6101b06104a0565b604051808273ffffffffffffffffffffffffffffffffffffffff1673ffffffffffffffffffffffffffffffffffffffff16815260200191505060405180910390f35b34156101fd57600080fd5b61021360048080359060200190919050506104c6565b6040518082815260200191505060405180910390f35b341561023457600080fd5b610260600480803573ffffffffffffffffffffffffffffffffffffffff16906020019091905050610508565b005b341561026d57600080fd5b610299600480803573ffffffffffffffffffffffffffffffffffffffff169060200190919050506105e4565b005b34156102a657600080fd5b6102bc60048080359060200190919050506106c0565b6040518082815260200191505060405180910390f35b34156102dd57600080fd5b610309600480803573ffffffffffffffffffffffffffffffffffffffff1690602001909190505061073f565b005b341561031657600080fd5b61032c600480803590602001909190505061081b565b005b6103446004808035906020019091905050610e3b565b005b341561035157600080fd5b61035961149d565b6040518082815260200191505060405180910390f35b341561037a57600080fd5b61039060048080359060200190919050506114a2565b6040518082815260200191505060405180910390f35b34156103b157600080fd5b6103b96114e7565b604051808215151515815260200191505060405180910390f35b34156103de57600080fd5b6103e66114f9565b6040518082815260200191505060405180910390f35b341561040757600080fd5b61040f6114ff565b604051808273ffffffffffffffffffffffffffffffffffffffff1673ffffffffffffffffffffffffffffffffffffffff16815260200191505060405180910390f35b341561045c57600080fd5b610464611525565b6040518082815260200191505060405180910390f35b600860009054906101000a900473ffffffffffffffffffffffffffffffffffffffff1681565b600660009054906101000a900473ffffffffffffffffffffffffffffffffffffffff1681565b6000806001600084815260200190815260200160002090508060030160009054906101000a900460ff1615156104fb57600080fd5b8060040154915050919050565b600660009054906101000a900473ffffffffffffffffffffffffffffffffffffffff1673ffffffffffffffffffffffffffffffffffffffff163373ffffffffffffffffffffffffffffffffffffffff1614151561056457600080fd5b600073ffffffffffffffffffffffffffffffffffffffff168173ffffffffffffffffffffffffffffffffffffffff16141515156105a057600080fd5b80600660006101000a81548173ffffffffffffffffffffffffffffffffffffffff021916908373ffffffffffffffffffffffffffffffffffffffff16021790555050565b600660009054906101000a900473ffffffffffffffffffffffffffffffffffffffff1673ffffffffffffffffffffffffffffffffffffffff163373ffffffffffffffffffffffffffffffffffffffff1614151561064057600080fd5b600073ffffffffffffffffffffffffffffffffffffffff168173ffffffffffffffffffffffffffffffffffffffff161415151561067c57600080fd5b80600760006101000a81548173ffffffffffffffffffffffffffffffffffffffff021916908373ffffffffffffffffffffffffffffffffffffffff16021790555050565b6000806001600084815260200190815260200160002090508060030160009054906101000a900460ff1615156106f557600080fd5b8060020160003373ffffffffffffffffffffffffffffffffffffffff1673ffffffffffffffffffffffffffffffffffffffff16815260200190815260200160002054915050919050565b600660009054906101000a900473ffffffffffffffffffffffffffffffffffffffff1673ffffffffffffffffffffffffffffffffffffffff163373ffffffffffffffffffffffffffffffffffffffff1614151561079b57600080fd5b600073ffffffffffffffffffffffffffffffffffffffff168173ffffffffffffffffffffffffffffffffffffffff16141515156107d757600080fd5b80600860006101000a81548173ffffffffffffffffffffffffffffffffffffffff021916908373ffffffffffffffffffffffffffffffffffffffff16021790555050565b600080600080600080600080600080339950600160008c81526020019081526020016000209850600260008b73ffffffffffffffffffffffffffffffffffffffff1673ffffffffffffffffffffffffffffffffffffffff168152602001908152602001600020975061088c8a61152b565b151561089757600080fd5b60008960010160008c73ffffffffffffffffffffffffffffffffffffffff1673ffffffffffffffffffffffffffffffffffffffff168152602001908152602001600020541115156108e757600080fd5b60008860000160008d81526020019081526020016000205411151561090b57600080fd5b60018960010160008c73ffffffffffffffffffffffffffffffffffffffff1673ffffffffffffffffffffffffffffffffffffffff16815260200190815260200160002054039650600189600001805490500395508860020160008b73ffffffffffffffffffffffffffffffffffffffff1673ffffffffffffffffffffffffffffffffffffffff16815260200190815260200160002054945088600001868154811015156109b457fe5b906000526020600020900160009054906101000a900473ffffffffffffffffffffffffffffffffffffffff1693506000600160008d815260200190815260200160002060010160008c73ffffffffffffffffffffffffffffffffffffffff1673ffffffffffffffffffffffffffffffffffffffff168152602001908152602001600020819055506000600160008d815260200190815260200160002060020160008c73ffffffffffffffffffffffffffffffffffffffff1673ffffffffffffffffffffffffffffffffffffffff168152602001908152602001600020819055506000861115610b635786600160008d815260200190815260200160002060010160008673ffffffffffffffffffffffffffffffffffffffff1673ffffffffffffffffffffffffffffffffffffffff1681526020019081526020016000208190555083600160008d815260200190815260200160002060000188815481101515610b1957fe5b906000526020600020900160006101000a81548173ffffffffffffffffffffffffffffffffffffffff021916908373ffffffffffffffffffffffffffffffffffffffff1602179055505b60018060008d815260200190815260200160002060000181818054905003915081610b8e91906115ba565b5084600160008d81526020019081526020016000206004016000828254039250508190555060018860000160008d815260200190815260200160002054039250600188600101805490500391508760010182815481101515610bec57fe5b90600052602060002090015490506000600260008c73ffffffffffffffffffffffffffffffffffffffff1673ffffffffffffffffffffffffffffffffffffffff16815260200190815260200160002060000160008d8152602001908152602001600020819055506000821115610d145782600260008c73ffffffffffffffffffffffffffffffffffffffff1673ffffffffffffffffffffffffffffffffffffffff16815260200190815260200160002060000160008381526020019081526020016000208190555080600260008c73ffffffffffffffffffffffffffffffffffffffff1673ffffffffffffffffffffffffffffffffffffffff16815260200190815260200160002060010184815481101515610d0457fe5b9060005260206000209001819055505b8460046000828254039250508190555084600260008c73ffffffffffffffffffffffffffffffffffffffff1673ffffffffffffffffffffffffffffffffffffffff168152602001908152602001600020600301600082825401925050819055507f6ff14b3a8f5fae2820852e97781b139d374bfca25145c281486dc4484948428f8b8b600160008f815260200190815260200160002060040154610dd87fffffffffffffffffffffffffffffffffffffffffffffffffffffffffffffffff8a611564565b604051808581526020018473ffffffffffffffffffffffffffffffffffffffff1673ffffffffffffffffffffffffffffffffffffffff16815260200183815260200182815260200194505050505060405180910390a15050505050505050505050565b600080600080600080339550600160008881526020019081526020016000209450600260008773ffffffffffffffffffffffffffffffffffffffff1673ffffffffffffffffffffffffffffffffffffffff1681526020019081526020016000209350610ea68661152b565b1515610eb157600080fd5b8460030160009054906101000a900460ff161515610efc57600180600089815260200190815260200160002060030160006101000a81548160ff021916908315150217905550610f5f565b60006001600089815260200190815260200160002060010160008873ffffffffffffffffffffffffffffffffffffffff1673ffffffffffffffffffffffffffffffffffffffff16815260200190815260200160002054141515610f5e57600080fd5b5b8360020160009054906101000a900460ff161515610fd7576001600260008873ffffffffffffffffffffffffffffffffffffffff1673ffffffffffffffffffffffffffffffffffffffff16815260200190815260200160002060020160006101000a81548160ff02191690831515021790555061103a565b6000600260008873ffffffffffffffffffffffffffffffffffffffff1673ffffffffffffffffffffffffffffffffffffffff16815260200190815260200160002060000160008981526020019081526020016000205414151561103957600080fd5b5b600560009054906101000a900473ffffffffffffffffffffffffffffffffffffffff1673ffffffffffffffffffffffffffffffffffffffff1663b9186d7d886000604051602001526040518263ffffffff167c010000000000000000000000000000000000000000000000000000000002815260040180828152602001915050602060405180830381600087803b15156110d357600080fd5b6102c65a03f115156110e457600080fd5b5050506040518051905092506110fb83601461159f565b3411151561110857600080fd5b6001600088815260200190815260200160002060030160009054906101000a900460ff16151561116157600180600089815260200190815260200160002060030160006101000a81548160ff0219169083151502179055505b60016000888152602001908152602001600020600001805480600101828161118991906115e6565b9160005260206000209001600088909190916101000a81548173ffffffffffffffffffffffffffffffffffffffff021916908373ffffffffffffffffffffffffffffffffffffffff1602179055509150816001600089815260200190815260200160002060010160008873ffffffffffffffffffffffffffffffffffffffff1673ffffffffffffffffffffffffffffffffffffffff16815260200190815260200160002081905550346001600089815260200190815260200160002060020160008873ffffffffffffffffffffffffffffffffffffffff1673ffffffffffffffffffffffffffffffffffffffff168152602001908152602001600020819055503460016000898152602001908152602001600020600401600082825401925050819055508360020160009054906101000a900460ff161515611321576001600260008873ffffffffffffffffffffffffffffffffffffffff1673ffffffffffffffffffffffffffffffffffffffff16815260200190815260200160002060020160006101000a81548160ff0219169083151502179055505b600260008773ffffffffffffffffffffffffffffffffffffffff1673ffffffffffffffffffffffffffffffffffffffff16815260200190815260200160002060010180548060010182816113759190611612565b9160005260206000209001600089909190915055905080600260008873ffffffffffffffffffffffffffffffffffffffff1673ffffffffffffffffffffffffffffffffffffffff168152602001908152602001600020600001600089815260200190815260200160002081905550346004600082825401925050819055507f6ff14b3a8f5fae2820852e97781b139d374bfca25145c281486dc4484948428f8787600160008b81526020019081526020016000206004015434604051808581526020018473ffffffffffffffffffffffffffffffffffffffff1673ffffffffffffffffffffffffffffffffffffffff16815260200183815260200182815260200194505050505060405180910390a18260016000898152602001908152505050505050505050565b601481565b6000806001600084815260200190815260200160002090508060030160009054906101000a900460ff1615156114d757600080fd5b8060000180549050915050919050565b6000809054906101000a900460ff1681565b60035481565b600760009054906101000a900473ffffffffffffffffffffffffffffffffffffffff1681565b60045481565b60008073ffffffffffffffffffffffffffffffffffffffff168273ffffffffffffffffffffffffffffffffffffffff1614159050919050565b60008060008414156115795760009150611598565b828402905082848281151561158a57fe5b0414151561159457fe5b8091505b5092915050565b60008082848115156115ad57fe5b0490508091505092915050565b8154818355818115116115e1578183600052602060002091820191016115e0919061163e565b5b505050565b81548183558181151161160d5781836000526020600020918201910161160c919061163e565b5b505050565b81548183558181151161163957818360005260206000209182019101611638919061163e565b5b505050565b61166091905b8082111561165c576000816000905550600101611644565b5090565b905600a165627a7a72305820e2b4c1eb6f59f87d76ad8f52e7a1ce46a72cd612681d3d8dc4eb2b3b932a47960029",
  "source": "pragma solidity ^0.4.18;\nimport \"zeppelin-solidity/contracts/math/SafeMath.sol\"; // solhint-disable-line\n\n\ncontract CelebrityToken {\n  function approve(address _to, uint256 _tokenId) public;\n  function balanceOf(address _owner) public view returns (uint256 balance);\n  function createPromoPerson(address _owner, string _name, uint256 _price) public;\n  function createContractPerson(string _name) public;\n  function getPerson(uint256 _tokenId) public view returns (string personName, uint256 sellingPrice, address owner);\n  function implementsERC721() public pure returns (bool);\n  function name() public pure returns (string);\n  function ownerOf(uint256 _tokenId) public view returns (address owner);\n  function payout(address _to) public;\n  function purchase(uint256 _tokenId) public payable;\n  function priceOf(uint256 _tokenId) public view returns (uint256 price);\n  function setCEO(address _newCEO) public;\n  function setCOO(address _newCOO) public;\n  function symbol() public pure returns (string);\n  function takeOwnership(uint256 _tokenId) public;\n  function tokensOfOwner(address _owner)public view returns(uint256[] ownerTokens);\n  function totalSupply() public view returns (uint256 total);\n  function transfer(address _to, uint256 _tokenId) public;\n  function transferFrom(address _from, address _to, uint256 _tokenId) public;\n  function withdraw() public;\n}\n\n\ncontract GroupBuyContract {\n  /*** CONSTANTS ***/\n  bool public isGroupBuy = true;\n  uint256 public constant MAX_CONTRIBUTION_SLOTS = 20; // Check\n\n  /*** DATATYPES ***/\n  // @dev A Group is created for all the contributors who want to contribute\n  //  to the purchase of a particular token.\n  struct Group {\n    // Array of addresses of contributors in group\n    address[] contributorArr;\n    // Maps address to an address's position (+ 1) in the contributorArr;\n    // 1 is added to the position because zero is the default value in the mapping\n    mapping(address => uint256) addressToContributorArrIndex;\n    mapping(address => uint256) addressToContribution; // user address to amount contributed\n    bool exists; // For tracking whether a group has been initialized or not\n    bool tokenPurchased; // Set to true if token was purchased by group\n    uint256 contributedBalance; // Total amount contributed\n    uint256 purchasePrice; // Price of purchased token\n  }\n\n  // @dev A Contributor record is created for each user participating in\n  //  this group buy contract. It stores the group ids the user contributed to\n  //  and a record of their sale proceeds.\n  struct Contributor {\n    // Maps tokenId to an tokenId's position (+ 1) in the groupArr;\n    // 1 is added to the position because zero is the default value in the mapping\n    mapping(uint256 => uint) tokenIdToGroupArrIndex;\n    // Array of tokenIds contributed to by a contributor\n    uint256[] groupArr;\n    bool exists;\n    uint256 withdrawableBalance; // ledger for proceeds from group sale\n  }\n\n  /*** EVENTS ***/\n  event FundsReceived(uint256 amount, address _from);\n\n  event Contribution(\n    uint256 _tokenId,\n    address contributor,\n    uint256 groupBalance,\n    uint256 netChange\n  );\n\n  event TokenPurchaseAttempt(uint256 balance, address origin);\n\n  event TokenSold(uint256 balance, address origin);\n\n  /*** STORAGE ***/\n  /// @dev A mapping from token IDs to the group associated with that token.\n  mapping(uint256 => Group) private tokenIndexToGroup;\n\n  // @dev A mapping from owner address to available balance not held by a Group.\n  mapping (address => Contributor) private userAddressToContributor;\n\n  uint256 public groupCount;\n  uint256 public usersBalance;\n\n  CelebrityToken celebContract;\n\n  // The addresses of the accounts (or contracts) that can execute actions within each roles.\n  address public ceoAddress;\n  address public cooAddress;\n  address public cfoAddress;\n\n  /*** ACCESS MODIFIERS ***/\n  /// @dev Access modifier for CEO-only functionality\n  modifier onlyCEO() {\n    require(msg.sender == ceoAddress);\n    _;\n  }\n\n  /// @dev Access modifier for COO-only functionality\n  modifier onlyCOO() {\n    require(msg.sender == cooAddress);\n    _;\n  }\n\n  /// @dev Access modifier for CFO-only functionality\n  modifier onlyCFO() {\n    require(msg.sender == cfoAddress);\n    _;\n  }\n\n  /// @dev Access modifier for contract managers only functionality\n  modifier onlyCLevel() {\n    require(\n      msg.sender == ceoAddress ||\n      msg.sender == cooAddress ||\n      msg.sender == cfoAddress\n    );\n    _;\n  }\n\n  /*** CONSTRUCTOR ***/\n  function GroupBuyContract(address contractAddress) public {\n    ceoAddress = msg.sender;\n    cooAddress = msg.sender;\n    cfoAddress = msg.sender;\n    celebContract = CelebrityToken(contractAddress);\n  }\n\n  /*** PUBLIC FUNCTIONS ***/\n  /// @notice Fallback fn for receiving ether\n  function () public payable {\n    FundsReceived(msg.value, msg.sender);\n  }\n\n  /// @notice Get contributed balance in a particular token\n  /// @param _tokenId The ID of the token to be queried\n  function getContributionBalanceForTokenGroup(uint256 _tokenId) public view returns (uint balance) {\n    var group = tokenIndexToGroup[_tokenId];\n    require(group.exists);\n    balance = group.addressToContribution[msg.sender];\n  }\n\n  /// @notice Get no. of contributors in a Group\n  /// @param _tokenId The ID of the token to be queried\n  function getContributorsInTokenGroupCount(uint256 _tokenId) public view returns (uint count) {\n    var group = tokenIndexToGroup[_tokenId];\n    require(group.exists); // DOUBLE CHECK IF THIS IS A VALID CHECK\n    count = group.contributorArr.length;\n  }\n\n  /// @notice Get contributed balance\n  /// @param _tokenId The ID of the token to be queried\n  function getTokenGroupTotalBalance(uint256 _tokenId) public view returns (uint balance) {\n    var group = tokenIndexToGroup[_tokenId];\n    require(group.exists);\n    balance = group.contributedBalance;\n  }\n\n  /// @notice Allow user to join purchase group\n  /// @param _tokenId The ID of the Token purchase group to be joined\n  function contributeToTokenGroup(uint256 _tokenId) public payable {\n    address userAdd = msg.sender;\n    var group = tokenIndexToGroup[_tokenId];\n    var contributor = userAddressToContributor[userAdd];\n\n    // Safety check to prevent against an unexpected 0x0 default.\n    require(_addressNotNull(userAdd));\n\n    /// Safety check to make sure contributor has not already joined this group buy\n    if (!group.exists) {\n      tokenIndexToGroup[_tokenId].exists = true;\n    } else {\n      require(tokenIndexToGroup[_tokenId].addressToContributorArrIndex[userAdd] == 0);\n    }\n\n    if (!contributor.exists) {\n      userAddressToContributor[userAdd].exists = true;\n    } else {\n      require(userAddressToContributor[userAdd].tokenIdToGroupArrIndex[_tokenId] == 0);\n    }\n\n    uint256 tokenPrice = celebContract.priceOf(_tokenId); /// DOUBLE CHECK IF THIS IS DONE RIGHT!!!!!!\n    /// Safety check to ensure amount contributed is higher than min portion of the\n    ///  purchase price\n    require(msg.value > SafeMath.div(tokenPrice, MAX_CONTRIBUTION_SLOTS));\n\n    if (!tokenIndexToGroup[_tokenId].exists) {\n      tokenIndexToGroup[_tokenId].exists = true;\n    }\n\n    // Index saved is 1 + the array's index, b/c 0 is the default value in a mapping,\n    //  so as stored on the mapping, array index will begin at 1\n    uint256 cIndex = tokenIndexToGroup[_tokenId].contributorArr.push(userAdd);\n    tokenIndexToGroup[_tokenId].addressToContributorArrIndex[userAdd] = cIndex;\n\n    tokenIndexToGroup[_tokenId].addressToContribution[userAdd] = msg.value;\n    tokenIndexToGroup[_tokenId].contributedBalance += msg.value;\n\n    if (!contributor.exists) {\n      userAddressToContributor[userAdd].exists = true;\n    }\n\n    // Index saved is 1 + the array's index, b/c 0 is the default value in a mapping,\n    //  so as stored on the mapping, array index will begin at 1\n    uint256 gIndex = userAddressToContributor[userAdd].groupArr.push(_tokenId);\n    userAddressToContributor[userAdd].tokenIdToGroupArrIndex[_tokenId] = gIndex;\n\n    usersBalance += msg.value;\n\n    Contribution(\n      _tokenId,\n      userAdd,\n      tokenIndexToGroup[_tokenId].contributedBalance,\n      msg.value\n    );\n\n    if (tokenIndexToGroup[_tokenId].contributedBalance > tokenPrice) {\n      //run purchase!!!!! @#$@#)$(@#())\n    }\n  }\n\n  /// @notice Allow user to withdraw contribution to purchase group\n  /// @param _tokenId The ID of the Token purchase group to be left\n  function withdrawFromTokenGroup(uint256 _tokenId) public {\n    address userAdd = msg.sender;\n\n    var group = tokenIndexToGroup[_tokenId];\n    var contributor = userAddressToContributor[userAdd];\n\n    // Safety check to prevent against an unexpected 0x0 default.\n    require(_addressNotNull(userAdd));\n\n    // Safety checks to ensure contributor has contributed to group\n    require(group.addressToContributorArrIndex[userAdd] > 0);\n    require(contributor.tokenIdToGroupArrIndex[_tokenId] > 0);\n\n    // Index was saved is 1 + the array's index, b/c 0 is the default value\n    //  in a mapping.\n    uint cIndex = group.addressToContributorArrIndex[userAdd] - 1;\n    uint lastCIndex = group.contributorArr.length - 1;\n    uint refundBalance = group.addressToContribution[userAdd];\n    address lastAddress = group.contributorArr[lastCIndex];\n\n    // clear contribution record in group\n    tokenIndexToGroup[_tokenId].addressToContributorArrIndex[userAdd] = 0;\n    tokenIndexToGroup[_tokenId].addressToContribution[userAdd] = 0;\n\n    // move address in last position to deleted contributor's spot\n    if (lastCIndex > 0) {\n      tokenIndexToGroup[_tokenId].addressToContributorArrIndex[lastAddress] = cIndex;\n      tokenIndexToGroup[_tokenId].contributorArr[cIndex] = lastAddress;\n    }\n\n    tokenIndexToGroup[_tokenId].contributorArr.length -= 1;\n    tokenIndexToGroup[_tokenId].contributedBalance -= refundBalance;\n\n    // Index saved is 1 + the array's index, b/c 0 is the default value\n    //  in a mapping.\n    uint gIndex = contributor.tokenIdToGroupArrIndex[_tokenId] - 1;\n    uint lastGIndex = contributor.groupArr.length - 1;\n    uint lastTokenId = contributor.groupArr[lastGIndex];\n\n    // clear group record in Contributor\n    userAddressToContributor[userAdd].tokenIdToGroupArrIndex[_tokenId] = 0;\n\n    // move tokenId in last position to deleted group record's spot\n    if (lastGIndex > 0) {\n      userAddressToContributor[userAdd].tokenIdToGroupArrIndex[lastTokenId] = gIndex;\n      userAddressToContributor[userAdd].groupArr[gIndex] = lastTokenId;\n    }\n\n    usersBalance -= refundBalance;\n\n    userAddressToContributor[userAdd].withdrawableBalance += refundBalance;\n    //userAdd.transfer(refundBalance); // DO WE WANT TO USE WITHDRAWAL METHOD INSTEAD\n\n    Contribution(\n      _tokenId,\n      userAdd,\n      tokenIndexToGroup[_tokenId].contributedBalance,\n      SafeMath.mul(uint256(-1), refundBalance)\n    );\n  }\n\n  /// @dev Assigns a new address to act as the CEO. Only available to the current CEO.\n  /// @param _newCEO The address of the new CEO\n  function setCEO(address _newCEO) public onlyCEO {\n    require(_newCEO != address(0));\n\n    ceoAddress = _newCEO;\n  }\n\n  /// @dev Assigns a new address to act as the CFO. Only available to the current CEO.\n  /// @param _newCFO The address of the new CFO\n  function setCFO(address _newCFO) public onlyCEO {\n    require(_newCFO != address(0));\n\n    cfoAddress = _newCFO;\n  }\n\n  /// @dev Assigns a new address to act as the COO. Only available to the current CEO.\n  /// @param _newCOO The address of the new COO\n  function setCOO(address _newCOO) public onlyCEO {\n    require(_newCOO != address(0));\n\n    cooAddress = _newCOO;\n  }\n\n  /*** PRIVATE FUNCTIONS ***/\n  /// Safety check on _to address to prevent against an unexpected 0x0 default.\n  function _addressNotNull(address _to) private pure returns (bool) {\n    return _to != address(0);\n  }\n}\n",
  "sourcePath": "/Users/dawn/Dropbox/Projects/crypt-group/contracts/GroupBuyContract.sol",
  "compiler": {
    "name": "solc",
    "version": "0.4.18+commit.9cf6e910.Emscripten.clang"
  },
  "schemaVersion": "1.0.1",
  "updatedAt": "2018-02-02T06:24:44.448Z"
}