{
  "contractName": "GroupBuyContract",
  "abi": [
    {
      "constant": true,
      "inputs": [],
      "name": "cfoAddress",
      "outputs": [
        {
          "name": "",
          "type": "address"
        }
      ],
      "payable": false,
      "stateMutability": "view",
      "type": "function"
    },
    {
      "constant": false,
      "inputs": [
        {
          "name": "_tokenId",
          "type": "uint256"
        }
      ],
      "name": "distributeSaleProceeds",
      "outputs": [],
      "payable": false,
      "stateMutability": "nonpayable",
      "type": "function"
    },
    {
      "constant": false,
      "inputs": [],
      "name": "setToForking",
      "outputs": [],
      "payable": false,
      "stateMutability": "nonpayable",
      "type": "function"
    },
    {
      "constant": true,
      "inputs": [],
      "name": "ceoAddress",
      "outputs": [
        {
          "name": "",
          "type": "address"
        }
      ],
      "payable": false,
      "stateMutability": "view",
      "type": "function"
    },
    {
      "constant": true,
      "inputs": [
        {
          "name": "_tokenId",
          "type": "uint256"
        }
      ],
      "name": "getTokenGroupTotalBalance",
      "outputs": [
        {
          "name": "balance",
          "type": "uint256"
        }
      ],
      "payable": false,
      "stateMutability": "view",
      "type": "function"
    },
    {
      "constant": false,
      "inputs": [
        {
          "name": "_to",
          "type": "address"
        }
      ],
      "name": "withdrawCommission",
      "outputs": [],
      "payable": false,
      "stateMutability": "nonpayable",
      "type": "function"
    },
    {
      "constant": true,
      "inputs": [],
      "name": "cooAddress2",
      "outputs": [
        {
          "name": "",
          "type": "address"
        }
      ],
      "payable": false,
      "stateMutability": "view",
      "type": "function"
    },
    {
      "constant": false,
      "inputs": [
        {
          "name": "_newCEO",
          "type": "address"
        }
      ],
      "name": "setCEO",
      "outputs": [],
      "payable": false,
      "stateMutability": "nonpayable",
      "type": "function"
    },
    {
      "constant": false,
      "inputs": [],
      "name": "setToNotForking",
      "outputs": [],
      "payable": false,
      "stateMutability": "nonpayable",
      "type": "function"
    },
    {
      "constant": true,
      "inputs": [
        {
          "name": "_tokenId",
          "type": "uint256"
        }
      ],
      "name": "getSelfContributionBalanceForTokenGroup",
      "outputs": [
        {
          "name": "balance",
          "type": "uint256"
        }
      ],
      "payable": false,
      "stateMutability": "view",
      "type": "function"
    },
    {
      "constant": false,
      "inputs": [
        {
          "name": "_tokenId",
          "type": "uint256"
        }
      ],
      "name": "dissolveTokenGroup",
      "outputs": [],
      "payable": false,
      "stateMutability": "nonpayable",
      "type": "function"
    },
    {
      "constant": false,
      "inputs": [],
      "name": "unpause",
      "outputs": [],
      "payable": false,
      "stateMutability": "nonpayable",
      "type": "function"
    },
    {
      "constant": true,
      "inputs": [
        {
          "name": "_tokenId",
          "type": "uint256"
        },
        {
          "name": "userAdd",
          "type": "address"
        }
      ],
      "name": "getContributionBalanceForTokenGroup",
      "outputs": [
        {
          "name": "balance",
          "type": "uint256"
        }
      ],
      "payable": false,
      "stateMutability": "view",
      "type": "function"
    },
    {
      "constant": false,
      "inputs": [
        {
          "name": "_newCFO",
          "type": "address"
        }
      ],
      "name": "setCFO",
      "outputs": [],
      "payable": false,
      "stateMutability": "nonpayable",
      "type": "function"
    },
    {
      "constant": true,
      "inputs": [],
      "name": "forking",
      "outputs": [
        {
          "name": "",
          "type": "bool"
        }
      ],
      "payable": false,
      "stateMutability": "view",
      "type": "function"
    },
    {
      "constant": false,
      "inputs": [
        {
          "name": "_tokenId",
          "type": "uint256"
        }
      ],
      "name": "contributeToTokenGroup",
      "outputs": [],
      "payable": true,
      "stateMutability": "payable",
      "type": "function"
    },
    {
      "constant": true,
      "inputs": [],
      "name": "paused",
      "outputs": [
        {
          "name": "",
          "type": "bool"
        }
      ],
      "payable": false,
      "stateMutability": "view",
      "type": "function"
    },
    {
      "constant": false,
      "inputs": [],
      "name": "withdrawBalance",
      "outputs": [],
      "payable": false,
      "stateMutability": "nonpayable",
      "type": "function"
    },
    {
      "constant": true,
      "inputs": [],
      "name": "cooAddress3",
      "outputs": [
        {
          "name": "",
          "type": "address"
        }
      ],
      "payable": false,
      "stateMutability": "view",
      "type": "function"
    },
    {
      "constant": true,
      "inputs": [],
      "name": "MAX_CONTRIBUTION_SLOTS",
      "outputs": [
        {
          "name": "",
          "type": "uint256"
        }
      ],
      "payable": false,
      "stateMutability": "view",
      "type": "function"
    },
    {
      "constant": false,
      "inputs": [
        {
          "name": "_tokenId",
          "type": "uint256"
        }
      ],
      "name": "leaveTokenGroup",
      "outputs": [],
      "payable": false,
      "stateMutability": "nonpayable",
      "type": "function"
    },
    {
      "constant": true,
      "inputs": [
        {
          "name": "_tokenId",
          "type": "uint256"
        }
      ],
      "name": "getContributorsInTokenGroupCount",
      "outputs": [
        {
          "name": "count",
          "type": "uint256"
        }
      ],
      "payable": false,
      "stateMutability": "view",
      "type": "function"
    },
    {
      "constant": false,
      "inputs": [],
      "name": "pause",
      "outputs": [],
      "payable": false,
      "stateMutability": "nonpayable",
      "type": "function"
    },
    {
      "constant": true,
      "inputs": [
        {
          "name": "_tokenId",
          "type": "uint256"
        }
      ],
      "name": "getContributorsInTokenGroup",
      "outputs": [
        {
          "name": "contribAddr",
          "type": "address[]"
        }
      ],
      "payable": false,
      "stateMutability": "view",
      "type": "function"
    },
    {
      "constant": false,
      "inputs": [
        {
          "name": "_newCOO2",
          "type": "address"
        }
      ],
      "name": "setCOO2",
      "outputs": [],
      "payable": false,
      "stateMutability": "nonpayable",
      "type": "function"
    },
    {
      "constant": true,
      "inputs": [],
      "name": "cooAddress1",
      "outputs": [
        {
          "name": "",
          "type": "address"
        }
      ],
      "payable": false,
      "stateMutability": "view",
      "type": "function"
    },
    {
      "constant": false,
      "inputs": [
        {
          "name": "numerator",
          "type": "uint256"
        },
        {
          "name": "denominator",
          "type": "uint256"
        }
      ],
      "name": "adjustCommission",
      "outputs": [],
      "payable": false,
      "stateMutability": "nonpayable",
      "type": "function"
    },
    {
      "constant": false,
      "inputs": [
        {
          "name": "_tokenId",
          "type": "uint256"
        },
        {
          "name": "_to",
          "type": "address"
        }
      ],
      "name": "transferToken",
      "outputs": [],
      "payable": false,
      "stateMutability": "nonpayable",
      "type": "function"
    },
    {
      "constant": false,
      "inputs": [
        {
          "name": "_tokenId",
          "type": "uint256"
        }
      ],
      "name": "leaveTokenGroupAndWithdrawBalance",
      "outputs": [],
      "payable": false,
      "stateMutability": "nonpayable",
      "type": "function"
    },
    {
      "constant": true,
      "inputs": [],
      "name": "getWithdrawableBalance",
      "outputs": [
        {
          "name": "balance",
          "type": "uint256"
        }
      ],
      "payable": false,
      "stateMutability": "view",
      "type": "function"
    },
    {
      "constant": false,
      "inputs": [
        {
          "name": "_newCOO3",
          "type": "address"
        }
      ],
      "name": "setCOO3",
      "outputs": [],
      "payable": false,
      "stateMutability": "nonpayable",
      "type": "function"
    },
    {
      "constant": true,
      "inputs": [],
      "name": "activeGroups",
      "outputs": [
        {
          "name": "",
          "type": "uint256"
        }
      ],
      "payable": false,
      "stateMutability": "view",
      "type": "function"
    },
    {
      "constant": true,
      "inputs": [],
      "name": "getSelfGroupsContributedTo",
      "outputs": [
        {
          "name": "groupIds",
          "type": "uint256[]"
        }
      ],
      "payable": false,
      "stateMutability": "view",
      "type": "function"
    },
    {
      "constant": true,
      "inputs": [
        {
          "name": "userAdd",
          "type": "address"
        }
      ],
      "name": "getGroupsContributedTo",
      "outputs": [
        {
          "name": "groupIds",
          "type": "uint256[]"
        }
      ],
      "payable": false,
      "stateMutability": "view",
      "type": "function"
    },
    {
      "constant": true,
      "inputs": [],
      "name": "commissionBalance",
      "outputs": [
        {
          "name": "",
          "type": "uint256"
        }
      ],
      "payable": false,
      "stateMutability": "view",
      "type": "function"
    },
    {
      "constant": false,
      "inputs": [
        {
          "name": "_tokenId",
          "type": "uint256"
        }
      ],
      "name": "activatePurchase",
      "outputs": [],
      "payable": false,
      "stateMutability": "nonpayable",
      "type": "function"
    },
    {
      "constant": true,
      "inputs": [],
      "name": "linkedContract",
      "outputs": [
        {
          "name": "",
          "type": "address"
        }
      ],
      "payable": false,
      "stateMutability": "view",
      "type": "function"
    },
    {
      "constant": true,
      "inputs": [
        {
          "name": "_tokenId",
          "type": "uint256"
        }
      ],
      "name": "getGroupPurchasedPrice",
      "outputs": [
        {
          "name": "price",
          "type": "uint256"
        }
      ],
      "payable": false,
      "stateMutability": "view",
      "type": "function"
    },
    {
      "constant": false,
      "inputs": [
        {
          "name": "_newCOO1",
          "type": "address"
        }
      ],
      "name": "setCOO1",
      "outputs": [],
      "payable": false,
      "stateMutability": "nonpayable",
      "type": "function"
    },
    {
      "constant": false,
      "inputs": [
        {
          "name": "_tokenId",
          "type": "uint256"
        },
        {
          "name": "_amount",
          "type": "uint256"
        }
      ],
      "name": "distributeCustomSaleProceeds",
      "outputs": [],
      "payable": false,
      "stateMutability": "nonpayable",
      "type": "function"
    },
    {
      "inputs": [
        {
          "name": "contractAddress",
          "type": "address"
        },
        {
          "name": "numerator",
          "type": "uint256"
        },
        {
          "name": "denominator",
          "type": "uint256"
        }
      ],
      "payable": false,
      "stateMutability": "nonpayable",
      "type": "constructor"
    },
    {
      "payable": true,
      "stateMutability": "payable",
      "type": "fallback"
    },
    {
      "anonymous": false,
      "inputs": [
        {
          "indexed": false,
          "name": "_tokenId",
          "type": "uint256"
        },
        {
          "indexed": false,
          "name": "amount",
          "type": "uint256"
        }
      ],
      "name": "Commission",
      "type": "event"
    },
    {
      "anonymous": false,
      "inputs": [
        {
          "indexed": false,
          "name": "_from",
          "type": "address"
        },
        {
          "indexed": false,
          "name": "amount",
          "type": "uint256"
        }
      ],
      "name": "FundsReceived",
      "type": "event"
    },
    {
      "anonymous": false,
      "inputs": [
        {
          "indexed": false,
          "name": "_to",
          "type": "address"
        },
        {
          "indexed": false,
          "name": "amount",
          "type": "uint256"
        }
      ],
      "name": "FundsDeposited",
      "type": "event"
    },
    {
      "anonymous": false,
      "inputs": [
        {
          "indexed": false,
          "name": "_to",
          "type": "address"
        },
        {
          "indexed": false,
          "name": "amount",
          "type": "uint256"
        }
      ],
      "name": "FundsWithdrawn",
      "type": "event"
    },
    {
      "anonymous": false,
      "inputs": [
        {
          "indexed": false,
          "name": "_tokenId",
          "type": "uint256"
        },
        {
          "indexed": false,
          "name": "_to",
          "type": "address"
        },
        {
          "indexed": false,
          "name": "amount",
          "type": "uint256"
        }
      ],
      "name": "InterestDeposited",
      "type": "event"
    },
    {
      "anonymous": false,
      "inputs": [
        {
          "indexed": false,
          "name": "_tokenId",
          "type": "uint256"
        },
        {
          "indexed": false,
          "name": "contributor",
          "type": "address"
        },
        {
          "indexed": false,
          "name": "groupBalance",
          "type": "uint256"
        },
        {
          "indexed": false,
          "name": "contributionAdded",
          "type": "uint256"
        }
      ],
      "name": "JoinGroup",
      "type": "event"
    },
    {
      "anonymous": false,
      "inputs": [
        {
          "indexed": false,
          "name": "_tokenId",
          "type": "uint256"
        },
        {
          "indexed": false,
          "name": "contributor",
          "type": "address"
        },
        {
          "indexed": false,
          "name": "groupBalance",
          "type": "uint256"
        },
        {
          "indexed": false,
          "name": "contributionSubtracted",
          "type": "uint256"
        }
      ],
      "name": "LeaveGroup",
      "type": "event"
    },
    {
      "anonymous": false,
      "inputs": [
        {
          "indexed": false,
          "name": "_tokenId",
          "type": "uint256"
        },
        {
          "indexed": false,
          "name": "_to",
          "type": "address"
        },
        {
          "indexed": false,
          "name": "amount",
          "type": "uint256"
        }
      ],
      "name": "ProceedsDeposited",
      "type": "event"
    },
    {
      "anonymous": false,
      "inputs": [
        {
          "indexed": false,
          "name": "_tokenId",
          "type": "uint256"
        },
        {
          "indexed": false,
          "name": "balance",
          "type": "uint256"
        }
      ],
      "name": "TokenPurchased",
      "type": "event"
    }
  ],
  "bytecode": "0x606060405266be78bd4c57d0006000556707d72165f25ed0006001556000600660146101000a81548160ff0219169083151502179055506000600660156101000a81548160ff021916908315150217905550341561005c57600080fd5b6040516060806148418339810160405280805190602001909190805190602001909190805190602001909190505033600260006101000a81548173ffffffffffffffffffffffffffffffffffffffff021916908373ffffffffffffffffffffffffffffffffffffffff16021790555033600460006101000a81548173ffffffffffffffffffffffffffffffffffffffff021916908373ffffffffffffffffffffffffffffffffffffffff16021790555033600560006101000a81548173ffffffffffffffffffffffffffffffffffffffff021916908373ffffffffffffffffffffffffffffffffffffffff16021790555033600660006101000a81548173ffffffffffffffffffffffffffffffffffffffff021916908373ffffffffffffffffffffffffffffffffffffffff16021790555033600360006101000a81548173ffffffffffffffffffffffffffffffffffffffff021916908373ffffffffffffffffffffffffffffffffffffffff1602179055508160098190555080600a8190555082600b60006101000a81548173ffffffffffffffffffffffffffffffffffffffff021916908373ffffffffffffffffffffffffffffffffffffffff160217905550505050614611806102306000396000f3006060604052600436106101ee576000357c0100000000000000000000000000000000000000000000000000000000900463ffffffff1680630519ce791461025b5780630791c634146102b05780630957c807146102d35780630a0f8168146102e85780630d112ec11461033d57806316c58d041461037457806318f3a50d146103ad57806327d7874c14610402578063331e6b781461043b57806338393b15146104505780633d1b6e9a146104875780633f4ba83a146104aa578063491386dd146104bf5780634e0a3379146105155780635130c8571461054e578063594fef801461057b5780635c975abb146105935780635fd8c710146105c0578063636bd9dc146105d5578063758fabcd1461062a5780637697bf9414610653578063777f5928146106765780638456cb59146106ad5780638ab1c77e146106c2578063a5e2940f1461073a578063a9b7c3bf14610773578063b6b1badc146107c8578063bad42590146107f4578063bcf728b214610836578063be788e7014610859578063c254ffb714610882578063d0e4567e146108bb578063d19d1912146108e4578063d8b20b1e1461094e578063dcf1a9ef146109dc578063e035aae314610a05578063e11527d414610a28578063ee097d7914610a7d578063fb2b835f14610ab4578063fd5f6a5314610aed575b7f8e47b87b0ef542cdfa1659c551d88bad38aa7f452d2bbb349ab7530dfec8be8f3334604051808373ffffffffffffffffffffffffffffffffffffffff1673ffffffffffffffffffffffffffffffffffffffff1681526020018281526020019250505060405180910390a1005b341561026657600080fd5b61026e610b19565b604051808273ffffffffffffffffffffffffffffffffffffffff1673ffffffffffffffffffffffffffffffffffffffff16815260200191505060405180910390f35b34156102bb57600080fd5b6102d16004808035906020019091905050610b3f565b005b34156102de57600080fd5b6102e6610d91565b005b34156102f357600080fd5b6102fb610f86565b604051808273ffffffffffffffffffffffffffffffffffffffff1673ffffffffffffffffffffffffffffffffffffffff16815260200191505060405180910390f35b341561034857600080fd5b61035e6004808035906020019091905050610fac565b6040518082815260200191505060405180910390f35b341561037f57600080fd5b6103ab600480803573ffffffffffffffffffffffffffffffffffffffff16906020019091905050610fee565b005b34156103b857600080fd5b6103c0611174565b604051808273ffffffffffffffffffffffffffffffffffffffff1673ffffffffffffffffffffffffffffffffffffffff16815260200191505060405180910390f35b341561040d57600080fd5b610439600480803573ffffffffffffffffffffffffffffffffffffffff1690602001909190505061119a565b005b341561044657600080fd5b61044e611276565b005b341561045b57600080fd5b610471600480803590602001909190505061130a565b6040518082815260200191505060405180910390f35b341561049257600080fd5b6104a86004808035906020019091905050611389565b005b34156104b557600080fd5b6104bd611789565b005b34156104ca57600080fd5b6104ff600480803590602001909190803573ffffffffffffffffffffffffffffffffffffffff1690602001909190505061181d565b6040518082815260200191505060405180910390f35b341561052057600080fd5b61054c600480803573ffffffffffffffffffffffffffffffffffffffff1690602001909190505061189d565b005b341561055957600080fd5b610561611979565b604051808215151515815260200191505060405180910390f35b610591600480803590602001909190505061198c565b005b341561059e57600080fd5b6105a66120e4565b604051808215151515815260200191505060405180910390f35b34156105cb57600080fd5b6105d36120f7565b005b34156105e057600080fd5b6105e861218d565b604051808273ffffffffffffffffffffffffffffffffffffffff1673ffffffffffffffffffffffffffffffffffffffff16815260200191505060405180910390f35b341561063557600080fd5b61063d6121b3565b6040518082815260200191505060405180910390f35b341561065e57600080fd5b61067460048080359060200190919050506121b8565b005b341561068157600080fd5b6106976004808035906020019091905050612454565b6040518082815260200191505060405180910390f35b34156106b857600080fd5b6106c0612499565b005b34156106cd57600080fd5b6106e3600480803590602001909190505061268e565b6040518080602001828103825283818151815260200191508051906020019060200280838360005b8381101561072657808201518184015260208101905061070b565b505050509050019250505060405180910390f35b341561074557600080fd5b610771600480803573ffffffffffffffffffffffffffffffffffffffff1690602001909190505061275b565b005b341561077e57600080fd5b610786612837565b604051808273ffffffffffffffffffffffffffffffffffffffff1673ffffffffffffffffffffffffffffffffffffffff16815260200191505060405180910390f35b34156107d357600080fd5b6107f2600480803590602001909190803590602001909190505061285d565b005b34156107ff57600080fd5b610834600480803590602001909190803573ffffffffffffffffffffffffffffffffffffffff16906020019091905050612a3a565b005b341561084157600080fd5b6108576004808035906020019091905050612c6a565b005b341561086457600080fd5b61086c612f0f565b6040518082815260200191505060405180910390f35b341561088d57600080fd5b6108b9600480803573ffffffffffffffffffffffffffffffffffffffff16906020019091905050612f8f565b005b34156108c657600080fd5b6108ce61306b565b6040518082815260200191505060405180910390f35b34156108ef57600080fd5b6108f7613071565b6040518080602001828103825283818151815260200191508051906020019060200280838360005b8381101561093a57808201518184015260208101905061091f565b505050509050019250505060405180910390f35b341561095957600080fd5b610985600480803573ffffffffffffffffffffffffffffffffffffffff16906020019091905050613146565b6040518080602001828103825283818151815260200191508051906020019060200280838360005b838110156109c85780820151818401526020810190506109ad565b505050509050019250505060405180910390f35b34156109e757600080fd5b6109ef61321d565b6040518082815260200191505060405180910390f35b3415610a1057600080fd5b610a266004808035906020019091905050613223565b005b3415610a3357600080fd5b610a3b61354a565b604051808273ffffffffffffffffffffffffffffffffffffffff1673ffffffffffffffffffffffffffffffffffffffff16815260200191505060405180910390f35b3415610a8857600080fd5b610a9e6004808035906020019091905050613570565b6040518082815260200191505060405180910390f35b3415610abf57600080fd5b610aeb600480803573ffffffffffffffffffffffffffffffffffffffff169060200190919050506135c5565b005b3415610af857600080fd5b610b1760048080359060200190919080359060200190919050506136a1565b005b600360009054906101000a900473ffffffffffffffffffffffffffffffffffffffff1681565b600080600080600460009054906101000a900473ffffffffffffffffffffffffffffffffffffffff1673ffffffffffffffffffffffffffffffffffffffff163373ffffffffffffffffffffffffffffffffffffffff161480610bee5750600560009054906101000a900473ffffffffffffffffffffffffffffffffffffffff1673ffffffffffffffffffffffffffffffffffffffff163373ffffffffffffffffffffffffffffffffffffffff16145b80610c465750600660009054906101000a900473ffffffffffffffffffffffffffffffffffffffff1673ffffffffffffffffffffffffffffffffffffffff163373ffffffffffffffffffffffffffffffffffffffff16145b1515610c5157600080fd5b600c600086815260200190815260200160002093508360030160009054906101000a900460ff161515610c8357600080fd5b60008460050154111515610c9657600080fd5b600b60009054906101000a900473ffffffffffffffffffffffffffffffffffffffff1673ffffffffffffffffffffffffffffffffffffffff1663b9186d7d866000604051602001526040518263ffffffff167c010000000000000000000000000000000000000000000000000000000002815260040180828152602001915050602060405180830381600087803b1515610d2f57600080fd5b6102c65a03f11515610d4057600080fd5b505050604051805190509250610d598460050154613812565b91508183111515610d6957600080fd5b610d7e610d7783605e61387d565b60646138b8565b9050610d8a85826138d3565b5050505050565b600260009054906101000a900473ffffffffffffffffffffffffffffffffffffffff1673ffffffffffffffffffffffffffffffffffffffff163373ffffffffffffffffffffffffffffffffffffffff161480610e3a5750600460009054906101000a900473ffffffffffffffffffffffffffffffffffffffff1673ffffffffffffffffffffffffffffffffffffffff163373ffffffffffffffffffffffffffffffffffffffff16145b80610e925750600560009054906101000a900473ffffffffffffffffffffffffffffffffffffffff1673ffffffffffffffffffffffffffffffffffffffff163373ffffffffffffffffffffffffffffffffffffffff16145b80610eea5750600660009054906101000a900473ffffffffffffffffffffffffffffffffffffffff1673ffffffffffffffffffffffffffffffffffffffff163373ffffffffffffffffffffffffffffffffffffffff16145b80610f425750600360009054906101000a900473ffffffffffffffffffffffffffffffffffffffff1673ffffffffffffffffffffffffffffffffffffffff163373ffffffffffffffffffffffffffffffffffffffff16145b1515610f4d57600080fd5b600660159054906101000a900460ff16151515610f6957600080fd5b6001600660156101000a81548160ff021916908315150217905550565b600260009054906101000a900473ffffffffffffffffffffffffffffffffffffffff1681565b600080600c600084815260200190815260200160002090508060030160009054906101000a900460ff161515610fe157600080fd5b8060040154915050919050565b600080600360009054906101000a900473ffffffffffffffffffffffffffffffffffffffff1673ffffffffffffffffffffffffffffffffffffffff163373ffffffffffffffffffffffffffffffffffffffff1614151561104d57600080fd5b6008549150600073ffffffffffffffffffffffffffffffffffffffff168373ffffffffffffffffffffffffffffffffffffffff161461108c57826110b0565b600360009054906101000a900473ffffffffffffffffffffffffffffffffffffffff165b905060006008819055506000821115611104578073ffffffffffffffffffffffffffffffffffffffff166108fc839081150290604051600060405180830381858888f19350505050151561110357600080fd5b5b7feaff4b37086828766ad3268786972c0cd24259d4c87a80f9d3963a3c3d999b0d8183604051808373ffffffffffffffffffffffffffffffffffffffff1673ffffffffffffffffffffffffffffffffffffffff1681526020018281526020019250505060405180910390a1505050565b600560009054906101000a900473ffffffffffffffffffffffffffffffffffffffff1681565b600260009054906101000a900473ffffffffffffffffffffffffffffffffffffffff1673ffffffffffffffffffffffffffffffffffffffff163373ffffffffffffffffffffffffffffffffffffffff161415156111f657600080fd5b600073ffffffffffffffffffffffffffffffffffffffff168173ffffffffffffffffffffffffffffffffffffffff161415151561123257600080fd5b80600260006101000a81548173ffffffffffffffffffffffffffffffffffffffff021916908373ffffffffffffffffffffffffffffffffffffffff16021790555050565b600260009054906101000a900473ffffffffffffffffffffffffffffffffffffffff1673ffffffffffffffffffffffffffffffffffffffff163373ffffffffffffffffffffffffffffffffffffffff161415156112d257600080fd5b600660159054906101000a900460ff1615156112ed57600080fd5b6000600660156101000a81548160ff021916908315150217905550565b600080600c600084815260200190815260200160002090508060030160009054906101000a900460ff16151561133f57600080fd5b8060020160003373ffffffffffffffffffffffffffffffffffffffff1673ffffffffffffffffffffffffffffffffffffffff16815260200190815260200160002054915050919050565b600080600080600460009054906101000a900473ffffffffffffffffffffffffffffffffffffffff1673ffffffffffffffffffffffffffffffffffffffff163373ffffffffffffffffffffffffffffffffffffffff1614806114385750600560009054906101000a900473ffffffffffffffffffffffffffffffffffffffff1673ffffffffffffffffffffffffffffffffffffffff163373ffffffffffffffffffffffffffffffffffffffff16145b806114905750600660009054906101000a900473ffffffffffffffffffffffffffffffffffffffff1673ffffffffffffffffffffffffffffffffffffffff163373ffffffffffffffffffffffffffffffffffffffff16145b151561149b57600080fd5b600660159054906101000a900460ff1615156114b657600080fd5b600c600086815260200190815260200160002093508360030160009054906101000a900460ff1615156114e857600080fd5b600084600501541415156114fb57600080fd5b600092505b600c60008681526020019081526020016000206000018054905083101561174257600c60008681526020019081526020016000206000018381548110151561154457fe5b906000526020600020900160009054906101000a900473ffffffffffffffffffffffffffffffffffffffff1691508360020160008373ffffffffffffffffffffffffffffffffffffffff1673ffffffffffffffffffffffffffffffffffffffff1681526020019081526020016000205490506115c08583613c71565b6000600c600087815260200190815260200160002060020160008473ffffffffffffffffffffffffffffffffffffffff1673ffffffffffffffffffffffffffffffffffffffff168152602001908152602001600020819055506000600c600087815260200190815260200160002060010160008473ffffffffffffffffffffffffffffffffffffffff1673ffffffffffffffffffffffffffffffffffffffff1681526020019081526020016000208190555080600d60008473ffffffffffffffffffffffffffffffffffffffff1673ffffffffffffffffffffffffffffffffffffffff168152602001908152602001600020600301600082825401925050819055507f07c5b0ee196554c56f6c71c243649abee344214e9147a7c9c81673b0f0657d51858383604051808481526020018373ffffffffffffffffffffffffffffffffffffffff1673ffffffffffffffffffffffffffffffffffffffff168152602001828152602001935050505060405180910390a18280600101935050611500565b60016007600082825403925050819055506000600c600087815260200190815260200160002060030160006101000a81548160ff0219169083151502179055505050505050565b600260009054906101000a900473ffffffffffffffffffffffffffffffffffffffff1673ffffffffffffffffffffffffffffffffffffffff163373ffffffffffffffffffffffffffffffffffffffff161415156117e557600080fd5b600660149054906101000a900460ff16151561180057600080fd5b6000600660146101000a81548160ff021916908315150217905550565b600080600c600085815260200190815260200160002090508060030160009054906101000a900460ff16151561185257600080fd5b8060020160008473ffffffffffffffffffffffffffffffffffffffff1673ffffffffffffffffffffffffffffffffffffffff1681526020019081526020016000205491505092915050565b600260009054906101000a900473ffffffffffffffffffffffffffffffffffffffff1673ffffffffffffffffffffffffffffffffffffffff163373ffffffffffffffffffffffffffffffffffffffff161415156118f957600080fd5b600073ffffffffffffffffffffffffffffffffffffffff168173ffffffffffffffffffffffffffffffffffffffff161415151561193557600080fd5b80600360006101000a81548173ffffffffffffffffffffffffffffffffffffffff021916908373ffffffffffffffffffffffffffffffffffffffff16021790555050565b600660159054906101000a900460ff1681565b6000806000806000806000600660159054906101000a900460ff161515156119b357600080fd5b600660149054906101000a900460ff161515156119cf57600080fd5b3396506119db87613f45565b15156119e657600080fd5b600c60008981526020019081526020016000209550600d60008873ffffffffffffffffffffffffffffffffffffffff1673ffffffffffffffffffffffffffffffffffffffff16815260200190815260200160002094508560030160009054906101000a900460ff161515611a875760018660030160006101000a81548160ff0219169083151502179055506001600760008282540192505081905550611ad8565b60008660010160008973ffffffffffffffffffffffffffffffffffffffff1673ffffffffffffffffffffffffffffffffffffffff16815260200190815260200160002054141515611ad757600080fd5b5b8460020160009054906101000a900460ff161515611b50576001600d60008973ffffffffffffffffffffffffffffffffffffffff1673ffffffffffffffffffffffffffffffffffffffff16815260200190815260200160002060020160006101000a81548160ff021916908315150217905550611b75565b60008560000160008a815260200190815260200160002054141515611b7457600080fd5b5b60008660050154141515611b8857600080fd5b600b60009054906101000a900473ffffffffffffffffffffffffffffffffffffffff1673ffffffffffffffffffffffffffffffffffffffff1663b9186d7d896000604051602001526040518263ffffffff167c010000000000000000000000000000000000000000000000000000000002815260040180828152602001915050602060405180830381600087803b1515611c2157600080fd5b6102c65a03f11515611c3257600080fd5b505050604051805190509350611c498460146138b8565b3410151515611c5757600080fd5b600c60008981526020019081526020016000206000018054806001018281611c7f91906144e8565b9160005260206000209001600089909190916101000a81548173ffffffffffffffffffffffffffffffffffffffff021916908373ffffffffffffffffffffffffffffffffffffffff160217905550925082600c60008a815260200190815260200160002060010160008973ffffffffffffffffffffffffffffffffffffffff1673ffffffffffffffffffffffffffffffffffffffff16815260200190815260200160002081905550611d35848760040154613f7e565b915081341115611e8d5781600c60008a815260200190815260200160002060020160008973ffffffffffffffffffffffffffffffffffffffff1673ffffffffffffffffffffffffffffffffffffffff1681526020019081526020016000208190555081600c60008a815260200190815260200160002060040160008282540192505081905550611dc53483613f7e565b600d60008973ffffffffffffffffffffffffffffffffffffffff1673ffffffffffffffffffffffffffffffffffffffff168152602001908152602001600020600301600082825401925050819055507f543ba50a5eec5e6178218e364b1d0f396157b3c8fa278522c2cb7fd99407d47487611e403485613f7e565b604051808373ffffffffffffffffffffffffffffffffffffffff1673ffffffffffffffffffffffffffffffffffffffff1681526020018281526020019250505060405180910390a1611f0a565b34600c60008a815260200190815260200160002060020160008973ffffffffffffffffffffffffffffffffffffffff1673ffffffffffffffffffffffffffffffffffffffff1681526020019081526020016000208190555034600c60008a8152602001908152602001600020600401600082825401925050819055505b600d60008873ffffffffffffffffffffffffffffffffffffffff1673ffffffffffffffffffffffffffffffffffffffff1681526020019081526020016000206001018054806001018281611f5e9190614514565b916000526020600020900160008a909190915055905080600d60008973ffffffffffffffffffffffffffffffffffffffff1673ffffffffffffffffffffffffffffffffffffffff16815260200190815260200160002060000160008a8152602001908152602001600020819055507f69d18c620b0544cdc4de85bf8931344f76a272b538dfa310dc7915261910bb0a8888600c60008c815260200190815260200160002060040154600c60008d815260200190815260200160002060020160008c73ffffffffffffffffffffffffffffffffffffffff1673ffffffffffffffffffffffffffffffffffffffff16815260200190815260200160002054604051808581526020018473ffffffffffffffffffffffffffffffffffffffff1673ffffffffffffffffffffffffffffffffffffffff16815260200183815260200182815260200194505050505060405180910390a183600c60008a8152602001908152602001600020600401541015156120da576120d98885613f97565b5b5050505050505050565b600660149054906101000a900460ff1681565b600660149054906101000a900460ff1615151561211357600080fd5b61211c33613f45565b151561212757600080fd5b600d60003373ffffffffffffffffffffffffffffffffffffffff1673ffffffffffffffffffffffffffffffffffffffff16815260200190815260200160002060020160009054906101000a900460ff16151561218257600080fd5b61218b3361409a565b565b600660009054906101000a900473ffffffffffffffffffffffffffffffffffffffff1681565b601481565b600080600080600660149054906101000a900460ff161515156121da57600080fd5b339350600c60008681526020019081526020016000209250600d60008573ffffffffffffffffffffffffffffffffffffffff1673ffffffffffffffffffffffffffffffffffffffff168152602001908152602001600020915061223c84613f45565b151561224757600080fd5b8260030160009054906101000a900460ff16151561226457600080fd5b6000836005015414151561227757600080fd5b60008360010160008673ffffffffffffffffffffffffffffffffffffffff1673ffffffffffffffffffffffffffffffffffffffff168152602001908152602001600020541115156122c757600080fd5b6000826000016000878152602001908152602001600020541115156122eb57600080fd5b6122f585856141e2565b90506123018585613c71565b80600d60008673ffffffffffffffffffffffffffffffffffffffff1673ffffffffffffffffffffffffffffffffffffffff168152602001908152602001600020600301600082825401925050819055507f543ba50a5eec5e6178218e364b1d0f396157b3c8fa278522c2cb7fd99407d4748482604051808373ffffffffffffffffffffffffffffffffffffffff1673ffffffffffffffffffffffffffffffffffffffff1681526020018281526020019250505060405180910390a17f662de99f26e5bd63aebe32d71288137ebf447c0afe598ba08d284cb6f1aee1af8585600c60008981526020019081526020016000206004015484604051808581526020018473ffffffffffffffffffffffffffffffffffffffff1673ffffffffffffffffffffffffffffffffffffffff16815260200183815260200182815260200194505050505060405180910390a15050505050565b600080600c600084815260200190815260200160002090508060030160009054906101000a900460ff16151561248957600080fd5b8060000180549050915050919050565b600260009054906101000a900473ffffffffffffffffffffffffffffffffffffffff1673ffffffffffffffffffffffffffffffffffffffff163373ffffffffffffffffffffffffffffffffffffffff1614806125425750600460009054906101000a900473ffffffffffffffffffffffffffffffffffffffff1673ffffffffffffffffffffffffffffffffffffffff163373ffffffffffffffffffffffffffffffffffffffff16145b8061259a5750600560009054906101000a900473ffffffffffffffffffffffffffffffffffffffff1673ffffffffffffffffffffffffffffffffffffffff163373ffffffffffffffffffffffffffffffffffffffff16145b806125f25750600660009054906101000a900473ffffffffffffffffffffffffffffffffffffffff1673ffffffffffffffffffffffffffffffffffffffff163373ffffffffffffffffffffffffffffffffffffffff16145b8061264a5750600360009054906101000a900473ffffffffffffffffffffffffffffffffffffffff1673ffffffffffffffffffffffffffffffffffffffff163373ffffffffffffffffffffffffffffffffffffffff16145b151561265557600080fd5b600660149054906101000a900460ff1615151561267157600080fd5b6001600660146101000a81548160ff021916908315150217905550565b612696614540565b6000600c600084815260200190815260200160002090508060030160009054906101000a900460ff1615156126ca57600080fd5b8060000180548060200260200160405190810160405280929190818152602001828054801561274e57602002820191906000526020600020905b8160009054906101000a900473ffffffffffffffffffffffffffffffffffffffff1673ffffffffffffffffffffffffffffffffffffffff1681526020019060010190808311612704575b5050505050915050919050565b600260009054906101000a900473ffffffffffffffffffffffffffffffffffffffff1673ffffffffffffffffffffffffffffffffffffffff163373ffffffffffffffffffffffffffffffffffffffff161415156127b757600080fd5b600073ffffffffffffffffffffffffffffffffffffffff168173ffffffffffffffffffffffffffffffffffffffff16141515156127f357600080fd5b80600560006101000a81548173ffffffffffffffffffffffffffffffffffffffff021916908373ffffffffffffffffffffffffffffffffffffffff16021790555050565b600460009054906101000a900473ffffffffffffffffffffffffffffffffffffffff1681565b600260009054906101000a900473ffffffffffffffffffffffffffffffffffffffff1673ffffffffffffffffffffffffffffffffffffffff163373ffffffffffffffffffffffffffffffffffffffff1614806129065750600460009054906101000a900473ffffffffffffffffffffffffffffffffffffffff1673ffffffffffffffffffffffffffffffffffffffff163373ffffffffffffffffffffffffffffffffffffffff16145b8061295e5750600560009054906101000a900473ffffffffffffffffffffffffffffffffffffffff1673ffffffffffffffffffffffffffffffffffffffff163373ffffffffffffffffffffffffffffffffffffffff16145b806129b65750600660009054906101000a900473ffffffffffffffffffffffffffffffffffffffff1673ffffffffffffffffffffffffffffffffffffffff163373ffffffffffffffffffffffffffffffffffffffff16145b80612a0e5750600360009054906101000a900473ffffffffffffffffffffffffffffffffffffffff1673ffffffffffffffffffffffffffffffffffffffff163373ffffffffffffffffffffffffffffffffffffffff16145b1515612a1957600080fd5b808211151515612a2857600080fd5b8160098190555080600a819055505050565b6000600460009054906101000a900473ffffffffffffffffffffffffffffffffffffffff1673ffffffffffffffffffffffffffffffffffffffff163373ffffffffffffffffffffffffffffffffffffffff161480612ae55750600560009054906101000a900473ffffffffffffffffffffffffffffffffffffffff1673ffffffffffffffffffffffffffffffffffffffff163373ffffffffffffffffffffffffffffffffffffffff16145b80612b3d5750600660009054906101000a900473ffffffffffffffffffffffffffffffffffffffff1673ffffffffffffffffffffffffffffffffffffffff163373ffffffffffffffffffffffffffffffffffffffff16145b1515612b4857600080fd5b600c600084815260200190815260200160002090508060030160009054906101000a900460ff161515612b7a57600080fd5b60008160050154111515612b8d57600080fd5b600b60009054906101000a900473ffffffffffffffffffffffffffffffffffffffff1673ffffffffffffffffffffffffffffffffffffffff1663a9059cbb83856040518363ffffffff167c0100000000000000000000000000000000000000000000000000000000028152600401808373ffffffffffffffffffffffffffffffffffffffff1673ffffffffffffffffffffffffffffffffffffffff16815260200182815260200192505050600060405180830381600087803b1515612c5157600080fd5b6102c65a03f11515612c6257600080fd5b505050505050565b600080600080600660149054906101000a900460ff16151515612c8c57600080fd5b339350600c60008681526020019081526020016000209250600d60008573ffffffffffffffffffffffffffffffffffffffff1673ffffffffffffffffffffffffffffffffffffffff1681526020019081526020016000209150612cee84613f45565b1515612cf957600080fd5b8260030160009054906101000a900460ff161515612d1657600080fd5b60008360050154141515612d2957600080fd5b60008360010160008673ffffffffffffffffffffffffffffffffffffffff1673ffffffffffffffffffffffffffffffffffffffff16815260200190815260200160002054111515612d7957600080fd5b600082600001600087815260200190815260200160002054111515612d9d57600080fd5b612da785856141e2565b9050612db38585613c71565b80600d60008673ffffffffffffffffffffffffffffffffffffffff1673ffffffffffffffffffffffffffffffffffffffff168152602001908152602001600020600301600082825401925050819055507f543ba50a5eec5e6178218e364b1d0f396157b3c8fa278522c2cb7fd99407d4748482604051808373ffffffffffffffffffffffffffffffffffffffff1673ffffffffffffffffffffffffffffffffffffffff1681526020018281526020019250505060405180910390a1612e778461409a565b7f662de99f26e5bd63aebe32d71288137ebf447c0afe598ba08d284cb6f1aee1af8585600c60008981526020019081526020016000206004015484604051808581526020018473ffffffffffffffffffffffffffffffffffffffff1673ffffffffffffffffffffffffffffffffffffffff16815260200183815260200182815260200194505050505060405180910390a15050505050565b600080612f1b33613f45565b1515612f2657600080fd5b600d60003373ffffffffffffffffffffffffffffffffffffffff1673ffffffffffffffffffffffffffffffffffffffff16815260200190815260200160002090508060020160009054906101000a900460ff161515612f8457600080fd5b806003015491505090565b600260009054906101000a900473ffffffffffffffffffffffffffffffffffffffff1673ffffffffffffffffffffffffffffffffffffffff163373ffffffffffffffffffffffffffffffffffffffff16141515612feb57600080fd5b600073ffffffffffffffffffffffffffffffffffffffff168173ffffffffffffffffffffffffffffffffffffffff161415151561302757600080fd5b80600660006101000a81548173ffffffffffffffffffffffffffffffffffffffff021916908373ffffffffffffffffffffffffffffffffffffffff16021790555050565b60075481565b613079614554565b600061308433613f45565b151561308f57600080fd5b600d60003373ffffffffffffffffffffffffffffffffffffffff1673ffffffffffffffffffffffffffffffffffffffff16815260200190815260200160002090508060020160009054906101000a900460ff1615156130ed57600080fd5b8060010180548060200260200160405190810160405280929190818152602001828054801561313b57602002820191906000526020600020905b815481526020019060010190808311613127575b505050505091505090565b61314e614554565b600061315983613f45565b151561316457600080fd5b600d60008473ffffffffffffffffffffffffffffffffffffffff1673ffffffffffffffffffffffffffffffffffffffff16815260200190815260200160002090508060020160009054906101000a900460ff1615156131c257600080fd5b8060010180548060200260200160405190810160405280929190818152602001828054801561321057602002820191906000526020600020905b8154815260200190600101908083116131fc575b5050505050915050919050565b60085481565b600080600660149054906101000a900460ff1615151561324257600080fd5b600c6000848152602001908152602001600020915060008260020160003373ffffffffffffffffffffffffffffffffffffffff1673ffffffffffffffffffffffffffffffffffffffff1681526020019081526020016000205411806132f45750600260009054906101000a900473ffffffffffffffffffffffffffffffffffffffff1673ffffffffffffffffffffffffffffffffffffffff163373ffffffffffffffffffffffffffffffffffffffff16145b8061334c5750600460009054906101000a900473ffffffffffffffffffffffffffffffffffffffff1673ffffffffffffffffffffffffffffffffffffffff163373ffffffffffffffffffffffffffffffffffffffff16145b806133a45750600560009054906101000a900473ffffffffffffffffffffffffffffffffffffffff1673ffffffffffffffffffffffffffffffffffffffff163373ffffffffffffffffffffffffffffffffffffffff16145b806133fc5750600660009054906101000a900473ffffffffffffffffffffffffffffffffffffffff1673ffffffffffffffffffffffffffffffffffffffff163373ffffffffffffffffffffffffffffffffffffffff16145b806134545750600360009054906101000a900473ffffffffffffffffffffffffffffffffffffffff1673ffffffffffffffffffffffffffffffffffffffff163373ffffffffffffffffffffffffffffffffffffffff16145b151561345f57600080fd5b600b60009054906101000a900473ffffffffffffffffffffffffffffffffffffffff1673ffffffffffffffffffffffffffffffffffffffff1663b9186d7d846000604051602001526040518263ffffffff167c010000000000000000000000000000000000000000000000000000000002815260040180828152602001915050602060405180830381600087803b15156134f857600080fd5b6102c65a03f1151561350957600080fd5b5050506040518051905090508082600401541015151561352857600080fd5b6000826005015414151561353b57600080fd5b6135458382613f97565b505050565b600b60009054906101000a900473ffffffffffffffffffffffffffffffffffffffff1681565b600080600c600084815260200190815260200160002090508060030160009054906101000a900460ff1615156135a557600080fd5b600081600501541115156135b857600080fd5b8060050154915050919050565b600260009054906101000a900473ffffffffffffffffffffffffffffffffffffffff1673ffffffffffffffffffffffffffffffffffffffff163373ffffffffffffffffffffffffffffffffffffffff1614151561362157600080fd5b600073ffffffffffffffffffffffffffffffffffffffff168173ffffffffffffffffffffffffffffffffffffffff161415151561365d57600080fd5b80600460006101000a81548173ffffffffffffffffffffffffffffffffffffffff021916908373ffffffffffffffffffffffffffffffffffffffff16021790555050565b6000600460009054906101000a900473ffffffffffffffffffffffffffffffffffffffff1673ffffffffffffffffffffffffffffffffffffffff163373ffffffffffffffffffffffffffffffffffffffff16148061374c5750600560009054906101000a900473ffffffffffffffffffffffffffffffffffffffff1673ffffffffffffffffffffffffffffffffffffffff163373ffffffffffffffffffffffffffffffffffffffff16145b806137a45750600660009054906101000a900473ffffffffffffffffffffffffffffffffffffffff1673ffffffffffffffffffffffffffffffffffffffff163373ffffffffffffffffffffffffffffffffffffffff16145b15156137af57600080fd5b600c600084815260200190815260200160002090508060030160009054906101000a900460ff1615156137e157600080fd5b600081600501541115156137f457600080fd5b60008211151561380357600080fd5b61380d83836138d3565b505050565b600080548210156138395761383261382b8360c861387d565b605e6138b8565b9050613878565b60015482101561385f5761385861385183607861387d565b605e6138b8565b9050613877565b61387461386d83607361387d565b605e6138b8565b90505b5b919050565b600080600084141561389257600091506138b1565b82840290508284828115156138a357fe5b041415156138ad57fe5b8091505b5092915050565b60008082848115156138c657fe5b0490508091505092915050565b60008060008060006138f26138ea8760095461387d565b600a546138b8565b9450859350600092505b600c600088815260200190815260200160002060000180549050831015613b7d57600c60008881526020019081526020016000206000018381548110151561394057fe5b906000526020600020900160009054906101000a900473ffffffffffffffffffffffffffffffffffffffff1691506139ea6139ce86600c60008b815260200190815260200160002060020160008673ffffffffffffffffffffffffffffffffffffffff1673ffffffffffffffffffffffffffffffffffffffff1681526020019081526020016000205461387d565b600c60008a8152602001908152602001600020600401546138b8565b90506139f68783613c71565b6000600c600089815260200190815260200160002060020160008473ffffffffffffffffffffffffffffffffffffffff1673ffffffffffffffffffffffffffffffffffffffff168152602001908152602001600020819055506000600c600089815260200190815260200160002060010160008473ffffffffffffffffffffffffffffffffffffffff1673ffffffffffffffffffffffffffffffffffffffff16815260200190815260200160002081905550808403935080600d60008473ffffffffffffffffffffffffffffffffffffffff1673ffffffffffffffffffffffffffffffffffffffff168152602001908152602001600020600301600082825401925050819055507f07c5b0ee196554c56f6c71c243649abee344214e9147a7c9c81673b0f0657d51878383604051808481526020018373ffffffffffffffffffffffffffffffffffffffff1673ffffffffffffffffffffffffffffffffffffffff168152602001828152602001935050505060405180910390a182806001019350506138fc565b836008600082825401925050819055507f13df55cf2023cb8466d2e2429e76883392c117ece6befda766f9314c9997142a8785604051808381526020018281526020019250505060405180910390a160016007600082825403925050819055506000600c600089815260200190815260200160002060030160006101000a81548160ff0219169083151502179055506000600c600089815260200190815260200160002060000181613c2f9190614568565b506000600c6000898152602001908152602001600020600401819055506000600c60008981526020019081526020016000206005018190555050505050505050565b6000806001600d60008573ffffffffffffffffffffffffffffffffffffffff1673ffffffffffffffffffffffffffffffffffffffff1681526020019081526020016000206000016000868152602001908152602001600020540391506001600d60008573ffffffffffffffffffffffffffffffffffffffff1673ffffffffffffffffffffffffffffffffffffffff168152602001908152602001600020600101805490500390506000600d60008573ffffffffffffffffffffffffffffffffffffffff1673ffffffffffffffffffffffffffffffffffffffff1681526020019081526020016000206000016000868152602001908152602001600020819055506000811115613ee65781600d60008573ffffffffffffffffffffffffffffffffffffffff1673ffffffffffffffffffffffffffffffffffffffff1681526020019081526020016000206000016000600d60008773ffffffffffffffffffffffffffffffffffffffff1673ffffffffffffffffffffffffffffffffffffffff16815260200190815260200160002060010184815481101515613e0e57fe5b906000526020600020900154815260200190815260200160002081905550600d60008473ffffffffffffffffffffffffffffffffffffffff1673ffffffffffffffffffffffffffffffffffffffff16815260200190815260200160002060010181815481101515613e7b57fe5b906000526020600020900154600d60008573ffffffffffffffffffffffffffffffffffffffff1673ffffffffffffffffffffffffffffffffffffffff16815260200190815260200160002060010183815481101515613ed657fe5b9060005260206000209001819055505b6001600d60008573ffffffffffffffffffffffffffffffffffffffff1673ffffffffffffffffffffffffffffffffffffffff16815260200190815260200160002060010181818054905003915081613f3e9190614594565b5050505050565b60008073ffffffffffffffffffffffffffffffffffffffff168273ffffffffffffffffffffffffffffffffffffffff1614159050919050565b6000828211151515613f8c57fe5b818303905092915050565b80600c600084815260200190815260200160002060050181905550600b60009054906101000a900473ffffffffffffffffffffffffffffffffffffffff1673ffffffffffffffffffffffffffffffffffffffff1663efef39a182846040518363ffffffff167c0100000000000000000000000000000000000000000000000000000000028152600401808281526020019150506000604051808303818588803b151561404257600080fd5b6125ee5a03f1151561405357600080fd5b505050507f8e9ad85f153412974b951156ecd7f4153ae7ae208664792e8a5f8a711786b9388282604051808381526020018281526020019250505060405180910390a15050565b6000600d60008373ffffffffffffffffffffffffffffffffffffffff1673ffffffffffffffffffffffffffffffffffffffff1681526020019081526020016000206003015490506000600d60008473ffffffffffffffffffffffffffffffffffffffff1673ffffffffffffffffffffffffffffffffffffffff1681526020019081526020016000206003018190555060008111156141de577feaff4b37086828766ad3268786972c0cd24259d4c87a80f9d3963a3c3d999b0d8282604051808373ffffffffffffffffffffffffffffffffffffffff1673ffffffffffffffffffffffffffffffffffffffff1681526020018281526020019250505060405180910390a18173ffffffffffffffffffffffffffffffffffffffff166108fc829081150290604051600060405180830381858888f1935050505015156141dd57600080fd5b5b5050565b600080600080600c6000878152602001908152602001600020925060018360010160008773ffffffffffffffffffffffffffffffffffffffff1673ffffffffffffffffffffffffffffffffffffffff16815260200190815260200160002054039150600183600001805490500390508260020160008673ffffffffffffffffffffffffffffffffffffffff1673ffffffffffffffffffffffffffffffffffffffff1681526020019081526020016000205493506000600c600088815260200190815260200160002060010160008773ffffffffffffffffffffffffffffffffffffffff1673ffffffffffffffffffffffffffffffffffffffff168152602001908152602001600020819055506000600c600088815260200190815260200160002060020160008773ffffffffffffffffffffffffffffffffffffffff1673ffffffffffffffffffffffffffffffffffffffff16815260200190815260200160002081905550600081111561448e5781600c60008881526020019081526020016000206001016000856000018481548110151561437a57fe5b906000526020600020900160009054906101000a900473ffffffffffffffffffffffffffffffffffffffff1673ffffffffffffffffffffffffffffffffffffffff1673ffffffffffffffffffffffffffffffffffffffff1681526020019081526020016000208190555082600001818154811015156143f557fe5b906000526020600020900160009054906101000a900473ffffffffffffffffffffffffffffffffffffffff16600c60008881526020019081526020016000206000018381548110151561444457fe5b906000526020600020900160006101000a81548173ffffffffffffffffffffffffffffffffffffffff021916908373ffffffffffffffffffffffffffffffffffffffff1602179055505b6001600c6000888152602001908152602001600020600001818180549050039150816144ba9190614568565b5083600c60008881526020019081526020016000206004016000828254039250508190555050505092915050565b81548183558181151161450f5781836000526020600020918201910161450e91906145c0565b5b505050565b81548183558181151161453b5781836000526020600020918201910161453a91906145c0565b5b505050565b602060405190810160405280600081525090565b602060405190810160405280600081525090565b81548183558181151161458f5781836000526020600020918201910161458e91906145c0565b5b505050565b8154818355818115116145bb578183600052602060002091820191016145ba91906145c0565b5b505050565b6145e291905b808211156145de5760008160009055506001016145c6565b5090565b905600a165627a7a723058209f0760696e1df40e21073994be08bc563ca0c8a6aae3634f4c092ceeb4e1796d0029",
  "source": "pragma solidity ^0.4.18;\nimport \"zeppelin-solidity/contracts/math/SafeMath.sol\"; // solhint-disable-line\nimport \"./CelebrityToken.sol\";\n\n\ncontract GroupBuyContract {\n  /*** CONSTANTS ***/\n  uint256 public constant MAX_CONTRIBUTION_SLOTS = 20;\n  uint256 private firstStepLimit =  0.053613 ether;\n  uint256 private secondStepLimit = 0.564957 ether;\n\n  /*** DATATYPES ***/\n  // @dev A Group is created for all the contributors who want to contribute\n  //  to the purchase of a particular token.\n  struct Group {\n    // Array of addresses of contributors in group\n    address[] contributorArr;\n    // Maps address to an address's position (+ 1) in the contributorArr;\n    // 1 is added to the position because zero is the default value in the mapping\n    mapping(address => uint256) addressToContributorArrIndex;\n    mapping(address => uint256) addressToContribution; // user address to amount contributed\n    bool exists; // For tracking whether a group has been initialized or not\n    uint256 contributedBalance; // Total amount contributed\n    uint256 purchasePrice; // Price of purchased token\n  }\n\n  // @dev A Contributor record is created for each user participating in\n  //  this group buy contract. It stores the group ids the user contributed to\n  //  and a record of their sale proceeds.\n  struct Contributor {\n    // Maps tokenId to an tokenId's position (+ 1) in the groupArr;\n    // 1 is added to the position because zero is the default value in the mapping\n    mapping(uint256 => uint) tokenIdToGroupArrIndex;\n    // Array of tokenIds contributed to by a contributor\n    uint256[] groupArr;\n    bool exists;\n    // Ledger for withdrawable balance for this user.\n    //  Funds can come from excess paid into a groupBuy,\n    //  or from withdrawing from a group, or from\n    //  sale proceeds from a token.\n    uint256 withdrawableBalance;\n  }\n\n  /*** EVENTS ***/\n  /// Admin Events\n  // @dev Event noting commission paid to contract\n  event Commission(uint256 _tokenId, uint256 amount);\n\n  /// Contract Events\n  // @dev Event signifiying that contract received funds via fallback fn\n  event FundsReceived(address _from, uint256 amount);\n\n  /// User Events\n  // @dev Event marking funds deposited into user _to's account\n  event FundsDeposited(address _to, uint256 amount);\n\n  // @dev Event marking a withdrawal of amount by user _to\n  event FundsWithdrawn(address _to, uint256 amount);\n\n  // @dev Event noting an interest distribution for user _to for token _tokenId.\n  //  Token Group will not be disbanded\n  event InterestDeposited(uint256 _tokenId, address _to, uint256 amount);\n\n  // @dev Event for when a contributor joins a token group _tokenId\n  event JoinGroup(\n    uint256 _tokenId,\n    address contributor,\n    uint256 groupBalance,\n    uint256 contributionAdded\n  );\n\n  // @dev Event for when a contributor leaves a token group\n  event LeaveGroup(\n    uint256 _tokenId,\n    address contributor,\n    uint256 groupBalance,\n    uint256 contributionSubtracted\n  );\n\n  // @dev Event noting sales proceeds distribution for user _to from sale of token _tokenId\n  event ProceedsDeposited(uint256 _tokenId, address _to, uint256 amount);\n\n  // @dev Event for when a token group purchases a token\n  event TokenPurchased(uint256 _tokenId, uint256 balance);\n\n  /*** STORAGE ***/\n  // The addresses of the accounts (or contracts) that can execute actions within each roles.\n  address public ceoAddress;\n  address public cfoAddress;\n  address public cooAddress1;\n  address public cooAddress2;\n  address public cooAddress3;\n\n  // @dev Keeps track whether the contract is paused. When that is true, most actions are blocked\n  bool public paused = false;\n  bool public forking = false;\n\n  uint256 public activeGroups;\n  uint256 public commissionBalance;\n  uint256 private distributionNumerator;\n  uint256 private distributionDenominator;\n\n  CelebrityToken public linkedContract;\n\n  /// @dev A mapping from token IDs to the group associated with that token.\n  mapping(uint256 => Group) private tokenIndexToGroup;\n\n  // @dev A mapping from owner address to available balance not held by a Group.\n  mapping(address => Contributor) private userAddressToContributor;\n\n  /*** ACCESS MODIFIERS ***/\n  /// @dev Access modifier for CEO-only functionality\n  modifier onlyCEO() {\n    require(msg.sender == ceoAddress);\n    _;\n  }\n\n  /// @dev Access modifier for CFO-only functionality\n  modifier onlyCFO() {\n    require(msg.sender == cfoAddress);\n    _;\n  }\n\n  /// @dev Access modifier for COO-only functionality\n  modifier onlyCOO() {\n    require(\n      msg.sender == cooAddress1 ||\n      msg.sender == cooAddress2 ||\n      msg.sender == cooAddress3\n    );\n    _;\n  }\n\n  /// @dev Access modifier for contract managers only functionality\n  modifier onlyCLevel() {\n    require(\n      msg.sender == ceoAddress ||\n      msg.sender == cooAddress1 ||\n      msg.sender == cooAddress2 ||\n      msg.sender == cooAddress3 ||\n      msg.sender == cfoAddress\n    );\n    _;\n  }\n\n  /// @dev Modifier to allow actions only when the contract IS NOT paused\n  modifier whenNotPaused() {\n    require(!paused);\n    _;\n  }\n\n  /// @dev Modifier to allow actions only when the contract IS paused\n  modifier whenPaused {\n    require(paused);\n    _;\n  }\n\n  /// @dev Modifier to allow actions only when the contract IS NOT in forking mode\n  modifier whenNotForking() {\n    require(!forking);\n    _;\n  }\n\n  /// @dev Modifier to allow actions only when the contract IS in forking mode\n  modifier whenForking {\n    require(forking);\n    _;\n  }\n\n  /*** CONSTRUCTOR ***/\n  function GroupBuyContract(address contractAddress, uint256 numerator, uint256 denominator) public {\n    ceoAddress = msg.sender;\n    cooAddress1 = msg.sender;\n    cooAddress2 = msg.sender;\n    cooAddress3 = msg.sender;\n    cfoAddress = msg.sender;\n    distributionNumerator = numerator;\n    distributionDenominator = denominator;\n    linkedContract = CelebrityToken(contractAddress);\n  }\n\n  /*** PUBLIC FUNCTIONS ***/\n  /// @notice Fallback fn for receiving ether\n  function() external payable {\n    FundsReceived(msg.sender, msg.value);\n  }\n\n  /** Action Fns **/\n  /// @notice Backup function for activating token purchase\n  ///  requires sender to be a member of the group or CLevel\n  /// @param _tokenId The ID of the Token group\n  function activatePurchase(uint256 _tokenId) external whenNotPaused {\n    var group = tokenIndexToGroup[_tokenId];\n    require(group.addressToContribution[msg.sender] > 0 ||\n            msg.sender == ceoAddress ||\n            msg.sender == cooAddress1 ||\n            msg.sender == cooAddress2 ||\n            msg.sender == cooAddress3 ||\n            msg.sender == cfoAddress);\n\n    // Safety check that enough money has been contributed to group\n    var price = linkedContract.priceOf(_tokenId);\n    require(group.contributedBalance >= price);\n\n    // Safety check that token had not be purchased yet\n    require(group.purchasePrice == 0);\n\n    _purchase(_tokenId, price);\n  }\n\n  /// @notice Allow user to contribute to _tokenId token group\n  /// @param _tokenId The ID of the token group to be joined\n  function contributeToTokenGroup(uint256 _tokenId)\n  external payable whenNotForking whenNotPaused {\n    address userAdd = msg.sender;\n    // Safety check to prevent against an un  expected 0x0 default.\n    require(_addressNotNull(userAdd));\n\n    /// Safety check to make sure contributor has not already joined this group\n    var group = tokenIndexToGroup[_tokenId];\n    var contributor = userAddressToContributor[userAdd];\n    if (!group.exists) { // Create group if not exists\n      group.exists = true;\n      activeGroups += 1;\n    } else {\n      require(group.addressToContributorArrIndex[userAdd] == 0);\n    }\n\n    if (!contributor.exists) { // Create contributor if not exists\n      userAddressToContributor[userAdd].exists = true;\n    } else {\n      require(contributor.tokenIdToGroupArrIndex[_tokenId] == 0);\n    }\n\n    // Safety check to make sure group isn't currently holding onto token\n    //  or has a group record stored (for sales proceeds distribution)\n    require(group.purchasePrice == 0);\n\n    /// Safety check to ensure amount contributed is higher than min required percentage\n    ///  of purchase price\n    uint256 tokenPrice = linkedContract.priceOf(_tokenId);\n    require(msg.value >= uint256(SafeMath.div(tokenPrice, MAX_CONTRIBUTION_SLOTS)));\n\n    // Index saved is 1 + the array's index, b/c 0 is the default value in a mapping,\n    //  so as stored on the mapping, array index will begin at 1\n    uint256 cIndex = tokenIndexToGroup[_tokenId].contributorArr.push(userAdd);\n    tokenIndexToGroup[_tokenId].addressToContributorArrIndex[userAdd] = cIndex;\n\n    uint256 amountNeeded = SafeMath.sub(tokenPrice, group.contributedBalance);\n    if (msg.value > amountNeeded) {\n      tokenIndexToGroup[_tokenId].addressToContribution[userAdd] = amountNeeded;\n      tokenIndexToGroup[_tokenId].contributedBalance += amountNeeded;\n      // refund excess paid\n      userAddressToContributor[userAdd].withdrawableBalance += SafeMath.sub(msg.value, amountNeeded);\n      FundsDeposited(userAdd, SafeMath.sub(msg.value, amountNeeded));\n    } else {\n      tokenIndexToGroup[_tokenId].addressToContribution[userAdd] = msg.value;\n      tokenIndexToGroup[_tokenId].contributedBalance += msg.value;\n    }\n\n    // Index saved is 1 + the array's index, b/c 0 is the default value in a mapping,\n    //  so as stored on the mapping, array index will begin at 1\n    uint256 gIndex = userAddressToContributor[userAdd].groupArr.push(_tokenId);\n    userAddressToContributor[userAdd].tokenIdToGroupArrIndex[_tokenId] = gIndex;\n\n    JoinGroup(\n      _tokenId,\n      userAdd,\n      tokenIndexToGroup[_tokenId].contributedBalance,\n      tokenIndexToGroup[_tokenId].addressToContribution[userAdd]\n    );\n\n    // Purchase token if enough funds contributed\n    if (tokenIndexToGroup[_tokenId].contributedBalance >= tokenPrice) {\n      _purchase(_tokenId, tokenPrice);\n    }\n  }\n\n  /// @notice Allow user to leave purchase group; note that their contribution\n  ///  will be added to their withdrawable balance, and not directly refunded.\n  ///  User can call withdrawBalance to retrieve funds.\n  /// @param _tokenId The ID of the Token purchase group to be left\n  function leaveTokenGroup(uint256 _tokenId) external whenNotPaused {\n    address userAdd = msg.sender;\n\n    var group = tokenIndexToGroup[_tokenId];\n    var contributor = userAddressToContributor[userAdd];\n\n    // Safety check to prevent against an unexpected 0x0 default.\n    require(_addressNotNull(userAdd));\n\n    // Safety check to make sure group exists;\n    require(group.exists);\n\n    // Safety check to make sure group hasn't purchased token already\n    require(group.purchasePrice == 0);\n\n    // Safety checks to ensure contributor has contributed to group\n    require(group.addressToContributorArrIndex[userAdd] > 0);\n    require(contributor.tokenIdToGroupArrIndex[_tokenId] > 0);\n\n    uint refundBalance = _clearContributorRecordInGroup(_tokenId, userAdd);\n    _clearGroupRecordInContributor(_tokenId, userAdd);\n\n    userAddressToContributor[userAdd].withdrawableBalance += refundBalance;\n    FundsDeposited(userAdd, refundBalance);\n\n    LeaveGroup(\n      _tokenId,\n      userAdd,\n      tokenIndexToGroup[_tokenId].contributedBalance,\n      refundBalance\n    );\n  }\n\n  /// @notice Allow user to leave purchase group; note that their contribution\n  ///  and any funds they have in their withdrawableBalance will transfered to them.\n  /// @param _tokenId The ID of the Token purchase group to be left\n  function leaveTokenGroupAndWithdrawBalance(uint256 _tokenId) external whenNotPaused {\n    address userAdd = msg.sender;\n\n    var group = tokenIndexToGroup[_tokenId];\n    var contributor = userAddressToContributor[userAdd];\n\n    // Safety check to prevent against an unexpected 0x0 default.\n    require(_addressNotNull(userAdd));\n\n    // Safety check to make sure group exists;\n    require(group.exists);\n\n    // Safety check to make sure group hasn't purchased token already\n    require(group.purchasePrice == 0);\n\n    // Safety checks to ensure contributor has contributed to group\n    require(group.addressToContributorArrIndex[userAdd] > 0);\n    require(contributor.tokenIdToGroupArrIndex[_tokenId] > 0);\n\n    uint refundBalance = _clearContributorRecordInGroup(_tokenId, userAdd);\n    _clearGroupRecordInContributor(_tokenId, userAdd);\n\n    userAddressToContributor[userAdd].withdrawableBalance += refundBalance;\n    FundsDeposited(userAdd, refundBalance);\n\n    _withdrawUserFunds(userAdd);\n\n    LeaveGroup(\n      _tokenId,\n      userAdd,\n      tokenIndexToGroup[_tokenId].contributedBalance,\n      refundBalance\n    );\n  }\n\n  /// @dev Withdraw balance from own account\n  function withdrawBalance() external whenNotPaused {\n    require(_addressNotNull(msg.sender));\n    require(userAddressToContributor[msg.sender].exists);\n\n    _withdrawUserFunds(msg.sender);\n  }\n\n  /** Admin Fns **/\n  /// @notice Fn for adjusting commission rate\n  /// @param numerator Numerator for calculating funds distributed\n  /// @param denominator Denominator for calculating funds distributed\n  function adjustCommission(uint256 numerator, uint256 denominator) external onlyCLevel {\n    require(numerator <= denominator);\n    distributionNumerator = numerator;\n    distributionDenominator = denominator;\n  }\n\n  /// @dev In the event of needing a fork, this function moves all\n  ///  of a group's contributors' contributions into their withdrawable balance.\n  /// @notice Group is dissolved after fn call\n  /// @param _tokenId The ID of the Token purchase group\n  function dissolveTokenGroup(uint256 _tokenId) external onlyCOO whenForking {\n    var group = tokenIndexToGroup[_tokenId];\n\n    // Safety check to make sure group exists and had not purchased a token\n    require(group.exists);\n    require(group.purchasePrice == 0);\n\n    for (uint i = 0; i < tokenIndexToGroup[_tokenId].contributorArr.length; i++) {\n      address userAdd = tokenIndexToGroup[_tokenId].contributorArr[i];\n\n      var userContribution = group.addressToContribution[userAdd];\n\n      _clearGroupRecordInContributor(_tokenId, userAdd);\n\n      // clear contributor record on group\n      tokenIndexToGroup[_tokenId].addressToContribution[userAdd] = 0;\n      tokenIndexToGroup[_tokenId].addressToContributorArrIndex[userAdd] = 0;\n\n      // move contributor's contribution to their withdrawable balance\n      userAddressToContributor[userAdd].withdrawableBalance += userContribution;\n      ProceedsDeposited(_tokenId, userAdd, userContribution);\n    }\n    activeGroups -= 1;\n    tokenIndexToGroup[_tokenId].exists = false;\n  }\n\n  /// @dev Backup fn to allow distribution of funds after sale,\n  ///  for the special scenario where an alternate sale platform is used;\n  /// @notice Group is dissolved after fn call\n  /// @param _tokenId The ID of the Token purchase group\n  /// @param _amount Funds to be distributed\n  function distributeCustomSaleProceeds(uint256 _tokenId, uint256 _amount) external onlyCOO {\n    var group = tokenIndexToGroup[_tokenId];\n\n    // Safety check to make sure group exists and had purchased the token\n    require(group.exists);\n    require(group.purchasePrice > 0);\n    require(_amount > 0);\n\n    _distributeProceeds(_tokenId, _amount);\n  }\n\n  /* /// @dev Allow distribution of interest payment,\n  ///  Group is intact after fn call\n  /// @param _tokenId The ID of the Token purchase group\n  function distributeInterest(uint256 _tokenId) external onlyCOO payable {\n    var group = tokenIndexToGroup[_tokenId];\n    var amount = msg.value;\n    var excess = amount;\n\n    // Safety check to make sure group exists and had purchased the token\n    require(group.exists);\n    require(group.purchasePrice > 0);\n    require(amount > 0);\n\n    for (uint i = 0; i < tokenIndexToGroup[_tokenId].contributorArr.length; i++) {\n      address userAdd = tokenIndexToGroup[_tokenId].contributorArr[i];\n\n      // calculate contributor's interest proceeds and add to their withdrawable balance\n      uint256 userProceeds = uint256(SafeMath.div(SafeMath.mul(amount,\n        tokenIndexToGroup[_tokenId].addressToContribution[userAdd]),\n        tokenIndexToGroup[_tokenId].contributedBalance));\n      userAddressToContributor[userAdd].withdrawableBalance += userProceeds;\n\n      excess -= userProceeds;\n\n      InterestDeposited(_tokenId, userAdd, userProceeds);\n    }\n    commissionBalance += excess;\n    Commission(_tokenId, excess);\n  } */\n\n  /// @dev Distribute funds after a token is sold.\n  ///  Group is dissolved after fn call\n  /// @param _tokenId The ID of the Token purchase group\n  function distributeSaleProceeds(uint256 _tokenId) external onlyCOO {\n    var group = tokenIndexToGroup[_tokenId];\n\n    // Safety check to make sure group exists and had purchased the token\n    require(group.exists);\n    require(group.purchasePrice > 0);\n\n    // Safety check to make sure token had been sold\n    uint256 currPrice = linkedContract.priceOf(_tokenId);\n    uint256 soldPrice = _newPrice(group.purchasePrice);\n    require(currPrice > soldPrice);\n\n    uint256 paymentIntoContract = uint256(SafeMath.div(SafeMath.mul(soldPrice, 94), 100));\n    _distributeProceeds(_tokenId, paymentIntoContract);\n  }\n\n  /// @dev Called by any \"C-level\" role to pause the contract. Used only when\n  ///  a bug or exploit is detected and we need to limit damage.\n  function pause() external onlyCLevel whenNotPaused {\n    paused = true;\n  }\n\n  /// @dev Unpauses the smart contract. Can only be called by the CEO, since\n  ///  one reason we may pause the contract is when CFO or COO accounts are\n  ///  compromised.\n  function unpause() external onlyCEO whenPaused {\n    // can't unpause if contract was upgraded\n    paused = false;\n  }\n\n  /// @dev Called by any \"C-level\" role to set the contract to . Used only when\n  ///  a bug or exploit is detected and we need to limit damage.\n  function setToForking() external onlyCLevel whenNotForking {\n    forking = true;\n  }\n\n  /// @dev Unpauses the smart contract. Can only be called by the CEO, since\n  ///  one reason we may pause the contract is when CFO or COO accounts are\n  ///  compromised.\n  function setToNotForking() external onlyCEO whenForking {\n    // can't unpause if contract was upgraded\n    forking = false;\n  }\n\n  /// @dev Assigns a new address to act as the CEO. Only available to the current CEO.\n  /// @param _newCEO The address of the new CEO\n  function setCEO(address _newCEO) external onlyCEO {\n    require(_newCEO != address(0));\n\n    ceoAddress = _newCEO;\n  }\n\n  /// @dev Assigns a new address to act as the CFO. Only available to the current CEO.\n  /// @param _newCFO The address of the new CFO\n  function setCFO(address _newCFO) external onlyCEO {\n    require(_newCFO != address(0));\n\n    cfoAddress = _newCFO;\n  }\n\n  /// @dev Assigns a new address to act as the COO1. Only available to the current CEO.\n  /// @param _newCOO1 The address of the new COO1\n  function setCOO1(address _newCOO1) external onlyCEO {\n    require(_newCOO1 != address(0));\n\n    cooAddress1 = _newCOO1;\n  }\n\n  /// @dev Assigns a new address to act as the COO2. Only available to the current CEO.\n  /// @param _newCOO2 The address of the new COO2\n  function setCOO2(address _newCOO2) external onlyCEO {\n    require(_newCOO2 != address(0));\n\n    cooAddress2 = _newCOO2;\n  }\n\n  /// @dev Assigns a new address to act as the COO3. Only available to the current CEO.\n  /// @param _newCOO3 The address of the new COO3\n  function setCOO3(address _newCOO3) external onlyCEO {\n    require(_newCOO3 != address(0));\n\n    cooAddress3 = _newCOO3;\n  }\n\n  /// @dev Backup fn to allow transfer of token out of\n  ///  contract, for use where a purchase group wants to use an alternate\n  ///  selling platform\n  /// @param _tokenId The ID of the Token purchase group\n  /// @param _to Address to transfer token to\n  function transferToken(uint256 _tokenId, address _to) external onlyCOO {\n    var group = tokenIndexToGroup[_tokenId];\n\n    // Safety check to make sure group exists and had purchased the token\n    require(group.exists);\n    require(group.purchasePrice > 0);\n\n    linkedContract.transfer(_to, _tokenId);\n  }\n\n  /// @dev Withdraws sale commission, CFO-only functionality\n  /// @param _to Address for commission to be sent to\n  function withdrawCommission(address _to) external onlyCFO {\n    uint256 balance = commissionBalance;\n    address transferee = (_to == address(0)) ? cfoAddress : _to;\n    commissionBalance = 0;\n    if (balance > 0) {\n      transferee.transfer(balance);\n    }\n    FundsWithdrawn(transferee, balance);\n  }\n\n  /** Information Query Fns **/\n  /// @dev Get contributed balance in _tokenId token group for user\n  /// @param _tokenId The ID of the token to be queried\n  function getContributionBalanceForTokenGroup(uint256 _tokenId, address userAdd) external view returns (uint balance) {\n    var group = tokenIndexToGroup[_tokenId];\n    require(group.exists);\n    balance = group.addressToContribution[userAdd];\n  }\n\n  /// @dev Get contributed balance in _tokenId token group for user\n  /// @param _tokenId The ID of the token to be queried\n  function getSelfContributionBalanceForTokenGroup(uint256 _tokenId) external view returns (uint balance) {\n    var group = tokenIndexToGroup[_tokenId];\n    require(group.exists);\n    balance = group.addressToContribution[msg.sender];\n  }\n\n  /// @dev Get array of contributors' addresses in _tokenId token group\n  /// @param _tokenId The ID of the token to be queried\n  function getContributorsInTokenGroup(uint256 _tokenId) external view returns (address[] contribAddr) {\n    var group = tokenIndexToGroup[_tokenId];\n    require(group.exists);\n    contribAddr = group.contributorArr;\n  }\n\n  /// @dev Get no. of contributors in _tokenId token group\n  /// @param _tokenId The ID of the token to be queried\n  function getContributorsInTokenGroupCount(uint256 _tokenId) external view returns (uint count) {\n    var group = tokenIndexToGroup[_tokenId];\n    require(group.exists);\n    count = group.contributorArr.length;\n  }\n\n  /// @dev Get list of tokenIds of token groups a user contributed to\n  function getGroupsContributedTo(address userAdd) external view returns (uint256[] groupIds) {\n    // Safety check to prevent against an unexpected 0x0 default.\n    require(_addressNotNull(userAdd));\n\n    var contributor = userAddressToContributor[userAdd];\n    require(contributor.exists);\n\n    groupIds = contributor.groupArr;\n  }\n\n  /// @dev Get list of tokenIds of token groups the user contributed to\n  function getSelfGroupsContributedTo() external view returns (uint256[] groupIds) {\n    // Safety check to prevent against an unexpected 0x0 default.\n    require(_addressNotNull(msg.sender));\n\n    var contributor = userAddressToContributor[msg.sender];\n    require(contributor.exists);\n\n    groupIds = contributor.groupArr;\n  }\n\n  /// @dev Get price at which token group purchased _tokenId token\n  function getGroupPurchasedPrice(uint256 _tokenId) external view returns (uint256 price) {\n    var group = tokenIndexToGroup[_tokenId];\n    require(group.exists);\n    require(group.purchasePrice > 0);\n    price = group.purchasePrice;\n  }\n\n  /// @dev Get withdrawable balance from sale proceeds for a user\n  function getWithdrawableBalance() external view returns (uint256 balance) {\n    // Safety check to prevent against an unexpected 0x0 default.\n    require(_addressNotNull(msg.sender));\n\n    var contributor = userAddressToContributor[msg.sender];\n    require(contributor.exists);\n\n    balance = contributor.withdrawableBalance;\n  }\n\n  /// @dev Get total contributed balance in _tokenId token group\n  /// @param _tokenId The ID of the token group to be queried\n  function getTokenGroupTotalBalance(uint256 _tokenId) external view returns (uint balance) {\n    var group = tokenIndexToGroup[_tokenId];\n    require(group.exists);\n    balance = group.contributedBalance;\n  }\n\n  /*** PRIVATE FUNCTIONS ***/\n  /// @dev Safety check on _to address to prevent against an unexpected 0x0 default.\n  /// @param _to Address to be checked\n  function _addressNotNull(address _to) private pure returns (bool) {\n    return _to != address(0);\n  }\n\n  /// @dev Clears record of a Contributor from a Group's record\n  /// @param _tokenId Token ID of Group to be cleared\n  /// @param _userAdd Address of Contributor\n  function _clearContributorRecordInGroup(uint256 _tokenId, address _userAdd) private returns (uint256 refundBalance) {\n    var group = tokenIndexToGroup[_tokenId];\n\n    // Index was saved is 1 + the array's index, b/c 0 is the default value\n    //  in a mapping.\n    uint cIndex = group.addressToContributorArrIndex[_userAdd] - 1;\n    uint lastCIndex = group.contributorArr.length - 1;\n    refundBalance = group.addressToContribution[_userAdd];\n\n    // clear contribution record in group\n    tokenIndexToGroup[_tokenId].addressToContributorArrIndex[_userAdd] = 0;\n    tokenIndexToGroup[_tokenId].addressToContribution[_userAdd] = 0;\n\n    // move address in last position to deleted contributor's spot\n    if (lastCIndex > 0) {\n      tokenIndexToGroup[_tokenId].addressToContributorArrIndex[group.contributorArr[lastCIndex]] = cIndex;\n      tokenIndexToGroup[_tokenId].contributorArr[cIndex] = group.contributorArr[lastCIndex];\n    }\n\n    tokenIndexToGroup[_tokenId].contributorArr.length -= 1;\n    tokenIndexToGroup[_tokenId].contributedBalance -= refundBalance;\n  }\n\n  /// @dev Clears record of a Group from a Contributor's record\n  /// @param _tokenId Token ID of Group to be cleared\n  /// @param _userAdd Address of Contributor\n  function _clearGroupRecordInContributor(uint256 _tokenId, address _userAdd) private {\n    // Index saved is 1 + the array's index, b/c 0 is the default value\n    //  in a mapping.\n    uint gIndex = userAddressToContributor[_userAdd].tokenIdToGroupArrIndex[_tokenId] - 1;\n    uint lastGIndex = userAddressToContributor[_userAdd].groupArr.length - 1;\n\n    // clear Group record in Contributor\n    userAddressToContributor[_userAdd].tokenIdToGroupArrIndex[_tokenId] = 0;\n\n    // move tokenId from end of array to deleted Group record's spot\n    if (lastGIndex > 0) {\n      userAddressToContributor[_userAdd].tokenIdToGroupArrIndex[userAddressToContributor[_userAdd].groupArr[lastGIndex]] = gIndex;\n      userAddressToContributor[_userAdd].groupArr[gIndex] = userAddressToContributor[_userAdd].groupArr[lastGIndex];\n    }\n\n    userAddressToContributor[_userAdd].groupArr.length -= 1;\n  }\n\n  /// @dev Redistribute proceeds from token purchase\n  /// @param _tokenId Token ID of token to be purchased\n  /// @param _amount Amount paid into contract for token\n  function _distributeProceeds(uint256 _tokenId, uint256 _amount) private {\n    uint256 fundsForDistribution = uint256(SafeMath.div(SafeMath.mul(_amount,\n      distributionNumerator), distributionDenominator));\n    uint256 commission = _amount;\n\n    for (uint i = 0; i < tokenIndexToGroup[_tokenId].contributorArr.length; i++) {\n      address userAdd = tokenIndexToGroup[_tokenId].contributorArr[i];\n\n      // calculate contributor's sale proceeds and add to their withdrawable balance\n      uint256 userProceeds = uint256(SafeMath.div(SafeMath.mul(fundsForDistribution,\n        tokenIndexToGroup[_tokenId].addressToContribution[userAdd]),\n        tokenIndexToGroup[_tokenId].contributedBalance));\n\n      _clearGroupRecordInContributor(_tokenId, userAdd);\n\n      // clear contributor record on group\n      tokenIndexToGroup[_tokenId].addressToContribution[userAdd] = 0;\n      tokenIndexToGroup[_tokenId].addressToContributorArrIndex[userAdd] = 0;\n\n      commission -= userProceeds;\n      userAddressToContributor[userAdd].withdrawableBalance += userProceeds;\n      ProceedsDeposited(_tokenId, userAdd, userProceeds);\n    }\n\n    commissionBalance += commission;\n    Commission(_tokenId, commission);\n\n    activeGroups -= 1;\n    tokenIndexToGroup[_tokenId].exists = false;\n    tokenIndexToGroup[_tokenId].contributorArr.length = 0;\n    tokenIndexToGroup[_tokenId].contributedBalance = 0;\n    tokenIndexToGroup[_tokenId].purchasePrice = 0;\n  }\n\n  /// @dev Calculates next price of celebrity token\n  /// @param _oldPrice Previous price\n  function _newPrice(uint256 _oldPrice) private view returns (uint256 newPrice) {\n    if (_oldPrice < firstStepLimit) {\n      // first stage\n      newPrice = SafeMath.div(SafeMath.mul(_oldPrice, 200), 94);\n    } else if (_oldPrice < secondStepLimit) {\n      // second stage\n      newPrice = SafeMath.div(SafeMath.mul(_oldPrice, 120), 94);\n    } else {\n      // third stage\n      newPrice = SafeMath.div(SafeMath.mul(_oldPrice, 115), 94);\n    }\n  }\n\n  /// @dev Calls CelebrityToken purchase fn and updates records\n  /// @param _tokenId Token ID of token to be purchased\n  /// @param _amount Amount to be paid to CelebrityToken\n  function _purchase(uint256 _tokenId, uint256 _amount) private {\n    tokenIndexToGroup[_tokenId].purchasePrice = _amount;\n    linkedContract.purchase.value(_amount)(_tokenId);\n    TokenPurchased(_tokenId, _amount);\n  }\n\n  function _withdrawUserFunds(address userAdd) private {\n    uint256 balance = userAddressToContributor[userAdd].withdrawableBalance;\n    userAddressToContributor[userAdd].withdrawableBalance = 0;\n\n    if (balance > 0) {\n      FundsWithdrawn(userAdd, balance);\n      userAdd.transfer(balance);\n    }\n  }\n}\n",
  "sourcePath": "/Users/dawn/Dropbox/Projects/crypt-group/contracts/GroupBuyContract.sol",
  "compiler": {
    "name": "solc",
    "version": "0.4.18+commit.9cf6e910.Emscripten.clang"
  },
  "schemaVersion": "1.0.1",
  "updatedAt": "2018-02-12T06:54:54.209Z"
}